{
  "contractName": "TodoList",
  "abi": [
    {
      "constant": true,
      "inputs": [
        {
          "name": "",
          "type": "uint256"
        }
      ],
      "name": "tasks",
      "outputs": [
        {
          "name": "id",
          "type": "uint256"
        },
        {
          "name": "content",
          "type": "string"
        },
        {
          "name": "completed",
          "type": "bool"
        }
      ],
      "payable": false,
      "stateMutability": "view",
      "type": "function",
      "signature": "0x8d977672"
    },
    {
      "constant": true,
      "inputs": [],
      "name": "task_count",
      "outputs": [
        {
          "name": "",
          "type": "uint256"
        }
      ],
      "payable": false,
      "stateMutability": "view",
      "type": "function",
      "signature": "0xb3435251"
    },
    {
      "inputs": [],
      "payable": false,
      "stateMutability": "nonpayable",
      "type": "constructor",
      "signature": "constructor"
    },
    {
      "anonymous": false,
      "inputs": [
        {
          "indexed": false,
          "name": "id",
          "type": "uint256"
        },
        {
          "indexed": false,
          "name": "content",
          "type": "string"
        },
        {
          "indexed": false,
          "name": "completed",
          "type": "bool"
        }
      ],
      "name": "taskcreated",
      "type": "event",
      "signature": "0x5dac94a871091ea8c2cb36cbe90d9fbe1f40ffee94760734ca21afc683af5c99"
    },
    {
      "anonymous": false,
      "inputs": [
        {
          "indexed": false,
          "name": "id",
          "type": "uint256"
        },
        {
          "indexed": false,
          "name": "completed",
          "type": "bool"
        }
      ],
      "name": "TaskCompleted",
      "type": "event",
      "signature": "0xe21fa966ca5cd02748c0752352d18c48165e61cb55b4c29cccf924b5a95fcff1"
    },
    {
      "constant": false,
      "inputs": [
        {
          "name": "_content",
          "type": "string"
        }
      ],
      "name": "createTask",
      "outputs": [],
      "payable": false,
      "stateMutability": "nonpayable",
      "type": "function",
      "signature": "0x111002aa"
    },
    {
      "constant": false,
      "inputs": [
        {
          "name": "_id",
          "type": "uint256"
        }
      ],
      "name": "toggleTask",
      "outputs": [],
      "payable": false,
      "stateMutability": "nonpayable",
      "type": "function",
      "signature": "0x613137a4"
    }
  ],
  "bytecode": "0x60806040526000805534801561001457600080fd5b50610089606060405190810160405280603381526020017f46696e64206120426c61636b486f6c6520686964696e6720696e20746865207681526020017f6173746e657373206f6620556e6976657273650000000000000000000000000081525061008e640100000000026401000000009004565b610279565b600080815480929190600101919050555060606040519081016040528060005481526020018281526020016000151581525060016000805481526020019081526020016000206000820151816000015560208201518160010190805190602001906100fa9291906101d4565b5060408201518160020160006101000a81548160ff0219169083151502179055509050507f5dac94a871091ea8c2cb36cbe90d9fbe1f40ffee94760734ca21afc683af5c99600054826000604051808481526020018060200183151515158152602001828103825284818151815260200191508051906020019080838360005b8381101561019557808201518184015260208101905061017a565b50505050905090810190601f1680156101c25780820380516001836020036101000a031916815260200191505b5094505050505060405180910390a150565b828054600181600116156101000203166002900490600052602060002090601f016020900481019282601f1061021557805160ff1916838001178555610243565b82800160010185558215610243579182015b82811115610242578251825591602001919060010190610227565b5b5090506102509190610254565b5090565b61027691905b8082111561027257600081600090555060010161025a565b5090565b90565b610719806102886000396000f3fe608060405260043610610062576000357c0100000000000000000000000000000000000000000000000000000000900463ffffffff168063111002aa14610067578063613137a41461012f5780638d9776721461016a578063b343525114610230575b600080fd5b34801561007357600080fd5b5061012d6004803603602081101561008a57600080fd5b81019080803590602001906401000000008111156100a757600080fd5b8201836020820111156100b957600080fd5b803590602001918460018302840111640100000000831117156100db57600080fd5b91908080601f016020809104026020016040519081016040528093929190818152602001838380828437600081840152601f19601f82011690508083019250505050505050919291929050505061025b565b005b34801561013b57600080fd5b506101686004803603602081101561015257600080fd5b81019080803590602001909291905050506103a1565b005b34801561017657600080fd5b506101a36004803603602081101561018d57600080fd5b810190808035906020019092919050505061054f565b604051808481526020018060200183151515158152602001828103825284818151815260200191508051906020019080838360005b838110156101f35780820151818401526020810190506101d8565b50505050905090810190601f1680156102205780820380516001836020036101000a031916815260200191505b5094505050505060405180910390f35b34801561023c57600080fd5b5061024561061e565b6040518082815260200191505060405180910390f35b600080815480929190600101919050555060606040519081016040528060005481526020018281526020016000151581525060016000805481526020019081526020016000206000820151816000015560208201518160010190805190602001906102c7929190610624565b5060408201518160020160006101000a81548160ff0219169083151502179055509050507f5dac94a871091ea8c2cb36cbe90d9fbe1f40ffee94760734ca21afc683af5c99600054826000604051808481526020018060200183151515158152602001828103825284818151815260200191508051906020019080838360005b83811015610362578082015181840152602081019050610347565b50505050905090810190601f16801561038f5780820380516001836020036101000a031916815260200191505b5094505050505060405180910390a150565b6103a96106a4565b600160008381526020019081526020016000206060604051908101604052908160008201548152602001600182018054600181600116156101000203166002900480601f01602080910402602001604051908101604052809291908181526020018280546001816001161561010002031660029004801561046b5780601f106104405761010080835404028352916020019161046b565b820191906000526020600020905b81548152906001019060200180831161044e57829003601f168201915b505050505081526020016002820160009054906101000a900460ff161515151581525050905080604001511581604001901515908115158152505080600160008481526020019081526020016000206000820151816000015560208201518160010190805190602001906104e0929190610624565b5060408201518160020160006101000a81548160ff0219169083151502179055509050507fe21fa966ca5cd02748c0752352d18c48165e61cb55b4c29cccf924b5a95fcff182826040015160405180838152602001821515151581526020019250505060405180910390a15050565b6001602052806000526040600020600091509050806000015490806001018054600181600116156101000203166002900480601f0160208091040260200160405190810160405280929190818152602001828054600181600116156101000203166002900480156106015780601f106105d657610100808354040283529160200191610601565b820191906000526020600020905b8154815290600101906020018083116105e457829003601f168201915b5050505050908060020160009054906101000a900460ff16905083565b60005481565b828054600181600116156101000203166002900490600052602060002090601f016020900481019282601f1061066557805160ff1916838001178555610693565b82800160010185558215610693579182015b82811115610692578251825591602001919060010190610677565b5b5090506106a091906106c8565b5090565b60606040519081016040528060008152602001606081526020016000151581525090565b6106ea91905b808211156106e65760008160009055506001016106ce565b5090565b9056fea165627a7a72305820a71db374df0255a2e5395ae0311a613842458816286610c3f4462abd5e5524780029",
  "source": "pragma solidity ^0.5.0;\r\n\r\ncontract TodoList{\r\n    uint public task_count=0;\r\n\r\n    struct Task{\r\n        uint id;\r\n        string content;\r\n        bool completed;\r\n    }\r\n\r\n    mapping (uint => Task) public tasks; // we are not only building an instance of our task dtype, \r\n    // but also for each task map them with an integer(unsigned: can be negative) id - key:value pair\r\n\r\n    // Since this is not a RemixIDe , thus we can't test deployed contracts..lets thus build a constructore \r\n    // that during the time oh initialisation once creates a task in the storage for us..\r\n    constructor() public {\r\n        createTask(\"Find a BlackHole hiding in the vastness of Universe\");\r\n    }\r\n\r\n    event taskcreated(\r\n        uint id,\r\n        string content,\r\n        bool completed\r\n    ); // an event simply tells a user that a transactionhas succesfully been processed\r\n\r\n    function createTask(string memory _content) public {\r\n        task_count++;\r\n        // besides increasing the count of to-do tasks, for every id key we are assigning it the content \r\n        // of the new task\r\n        tasks [task_count] = Task(task_count, _content, false);\r\n        // now that the task is created, how do the user know that a task is created and stored in memory ?\r\n        // this is why we need to declare an event.\r\n        emit taskcreated(task_count, _content, false); // false as the task is just being created for to-do\r\n    } \r\n\r\n    event TaskCompleted(\r\n        uint id,\r\n        bool completed\r\n    );\r\n\r\n    function toggleTask(uint _id) public {\r\n        Task memory _task = tasks[_id]; // retrieving info about a particular task with its id\r\n        _task.completed = ! _task.completed; // reverse the completion state of the task \r\n        tasks[_id]=_task;\r\n\r\n        // again to let user know that the task is marked as completed, trigger an event\r\n        emit TaskCompleted(_id, _task.completed);\r\n    }\r\n\r\n}",
  "sourcePath": "C:/Users/DEEPMALYA/OneDrive/Desktop/pip_Malya/Blockchain/eth-todo-list/contracts/to_do_list.sol",
  "compiler": {
    "name": "solc",
    "version": "0.5.0+commit.1d4f565a.Emscripten.clang"
  },
  "schemaVersion": "3.0.1",
  "updatedAt": "2026-02-28T09:31:38.819Z",
  "devdoc": {
    "methods": {}
  },
  "userdoc": {
    "methods": {}
  }
}