{
	"contracts/storage/StorageFactory.sol": {
		"StorageFactory": {
			"abi": [
				{
					"inputs": [],
					"name": "createSimpleStorageContract",
					"outputs": [],
					"stateMutability": "nonpayable",
					"type": "function"
				},
				{
					"inputs": [
						{
							"internalType": "uint256",
							"name": "",
							"type": "uint256"
						}
					],
					"name": "simplestoragearray",
					"outputs": [
						{
							"internalType": "contract SimpleStorage",
							"name": "",
							"type": "address"
						}
					],
					"stateMutability": "view",
					"type": "function"
				}
			],
			"devdoc": {
				"kind": "dev",
				"methods": {},
				"version": 1
			},
			"evm": {
				"assembly": "    /* \"contracts/storage/StorageFactory.sol\":350:587  contract StorageFactory{... */\n  mstore(0x40, 0x80)\n  callvalue\n  dup1\n  iszero\n  tag_1\n  jumpi\n  revert(0x00, 0x00)\ntag_1:\n  pop\n  dataSize(sub_0)\n  dup1\n  dataOffset(sub_0)\n  0x00\n  codecopy\n  0x00\n  return\nstop\n\nsub_0: assembly {\n        /* \"contracts/storage/StorageFactory.sol\":350:587  contract StorageFactory{... */\n      mstore(0x40, 0x80)\n      callvalue\n      dup1\n      iszero\n      tag_1\n      jumpi\n      revert(0x00, 0x00)\n    tag_1:\n      pop\n      jumpi(tag_2, lt(calldatasize, 0x04))\n      shr(0xe0, calldataload(0x00))\n      dup1\n      0x1dda6541\n      eq\n      tag_3\n      jumpi\n      dup1\n      0x7c6e24a7\n      eq\n      tag_4\n      jumpi\n    tag_2:\n      revert(0x00, 0x00)\n        /* \"contracts/storage/StorageFactory.sol\":431:584  function createSimpleStorageContract() public {... */\n    tag_3:\n      tag_5\n      tag_6\n      jump\t// in\n    tag_5:\n      stop\n        /* \"contracts/storage/StorageFactory.sol\":382:424  SimpleStorage [] public simplestoragearray */\n    tag_4:\n      tag_7\n      0x04\n      dup1\n      calldatasize\n      sub\n      dup2\n      add\n      swap1\n      tag_8\n      swap2\n      swap1\n      tag_9\n      jump\t// in\n    tag_8:\n      tag_10\n      jump\t// in\n    tag_7:\n      mload(0x40)\n      tag_11\n      swap2\n      swap1\n      tag_12\n      jump\t// in\n    tag_11:\n      mload(0x40)\n      dup1\n      swap2\n      sub\n      swap1\n      return\n        /* \"contracts/storage/StorageFactory.sol\":431:584  function createSimpleStorageContract() public {... */\n    tag_6:\n        /* \"contracts/storage/StorageFactory.sol\":488:511  SimpleStorage simpstorg */\n      0x00\n        /* \"contracts/storage/StorageFactory.sol\":512:531  new SimpleStorage() */\n      mload(0x40)\n      tag_14\n      swap1\n      tag_15\n      jump\t// in\n    tag_14:\n      mload(0x40)\n      dup1\n      swap2\n      sub\n      swap1\n      0x00\n      create\n      dup1\n      iszero\n      dup1\n      iszero\n      tag_16\n      jumpi\n      returndatacopy(0x00, 0x00, returndatasize)\n      revert(0x00, returndatasize)\n    tag_16:\n      pop\n        /* \"contracts/storage/StorageFactory.sol\":488:531  SimpleStorage simpstorg=new SimpleStorage() */\n      swap1\n      pop\n        /* \"contracts/storage/StorageFactory.sol\":542:560  simplestoragearray */\n      0x00\n        /* \"contracts/storage/StorageFactory.sol\":566:575  simpstorg */\n      dup2\n        /* \"contracts/storage/StorageFactory.sol\":542:576  simplestoragearray.push(simpstorg) */\n      swap1\n      dup1\n      0x01\n      dup2\n      sload\n      add\n      dup1\n      dup3\n      sstore\n      dup1\n      swap2\n      pop\n      pop\n      0x01\n      swap1\n      sub\n      swap1\n      0x00\n      mstore\n      keccak256(0x00, 0x20)\n      add\n      0x00\n      swap1\n      swap2\n      swap1\n      swap2\n      swap1\n      swap2\n      0x0100\n      exp\n      dup2\n      sload\n      dup2\n      0xffffffffffffffffffffffffffffffffffffffff\n      mul\n      not\n      and\n      swap1\n      dup4\n      0xffffffffffffffffffffffffffffffffffffffff\n      and\n      mul\n      or\n      swap1\n      sstore\n      pop\n        /* \"contracts/storage/StorageFactory.sol\":477:584  {... */\n      pop\n        /* \"contracts/storage/StorageFactory.sol\":431:584  function createSimpleStorageContract() public {... */\n      jump\t// out\n        /* \"contracts/storage/StorageFactory.sol\":382:424  SimpleStorage [] public simplestoragearray */\n    tag_10:\n      0x00\n      dup2\n      dup2\n      sload\n      dup2\n      lt\n      tag_18\n      jumpi\n      0x00\n      dup1\n      revert\n    tag_18:\n      swap1\n      0x00\n      mstore\n      keccak256(0x00, 0x20)\n      add\n      0x00\n      swap2\n      pop\n      sload\n      swap1\n      0x0100\n      exp\n      swap1\n      div\n      0xffffffffffffffffffffffffffffffffffffffff\n      and\n      dup2\n      jump\t// out\n    tag_15:\n      dataSize(sub_0)\n      dup1\n      dataOffset(sub_0)\n      dup4\n      codecopy\n      add\n      swap1\n      jump\t// out\n        /* \"#utility.yul\":88:205   */\n    tag_21:\n        /* \"#utility.yul\":197:198   */\n      0x00\n        /* \"#utility.yul\":194:195   */\n      0x00\n        /* \"#utility.yul\":187:199   */\n      revert\n        /* \"#utility.yul\":334:411   */\n    tag_23:\n        /* \"#utility.yul\":371:378   */\n      0x00\n        /* \"#utility.yul\":400:405   */\n      dup2\n        /* \"#utility.yul\":389:405   */\n      swap1\n      pop\n        /* \"#utility.yul\":334:411   */\n      swap2\n      swap1\n      pop\n      jump\t// out\n        /* \"#utility.yul\":417:539   */\n    tag_24:\n        /* \"#utility.yul\":490:514   */\n      tag_38\n        /* \"#utility.yul\":508:513   */\n      dup2\n        /* \"#utility.yul\":490:514   */\n      tag_23\n      jump\t// in\n    tag_38:\n        /* \"#utility.yul\":483:488   */\n      dup2\n        /* \"#utility.yul\":480:515   */\n      eq\n        /* \"#utility.yul\":470:533   */\n      tag_39\n      jumpi\n        /* \"#utility.yul\":529:530   */\n      0x00\n        /* \"#utility.yul\":526:527   */\n      0x00\n        /* \"#utility.yul\":519:531   */\n      revert\n        /* \"#utility.yul\":470:533   */\n    tag_39:\n        /* \"#utility.yul\":417:539   */\n      pop\n      jump\t// out\n        /* \"#utility.yul\":545:684   */\n    tag_25:\n        /* \"#utility.yul\":591:596   */\n      0x00\n        /* \"#utility.yul\":629:635   */\n      dup2\n        /* \"#utility.yul\":616:636   */\n      calldataload\n        /* \"#utility.yul\":607:636   */\n      swap1\n      pop\n        /* \"#utility.yul\":645:678   */\n      tag_41\n        /* \"#utility.yul\":672:677   */\n      dup2\n        /* \"#utility.yul\":645:678   */\n      tag_24\n      jump\t// in\n    tag_41:\n        /* \"#utility.yul\":545:684   */\n      swap3\n      swap2\n      pop\n      pop\n      jump\t// out\n        /* \"#utility.yul\":690:1019   */\n    tag_9:\n        /* \"#utility.yul\":749:755   */\n      0x00\n        /* \"#utility.yul\":798:800   */\n      0x20\n        /* \"#utility.yul\":786:795   */\n      dup3\n        /* \"#utility.yul\":777:784   */\n      dup5\n        /* \"#utility.yul\":773:796   */\n      sub\n        /* \"#utility.yul\":769:801   */\n      slt\n        /* \"#utility.yul\":766:885   */\n      iszero\n      tag_43\n      jumpi\n        /* \"#utility.yul\":804:883   */\n      tag_44\n      tag_21\n      jump\t// in\n    tag_44:\n        /* \"#utility.yul\":766:885   */\n    tag_43:\n        /* \"#utility.yul\":924:925   */\n      0x00\n        /* \"#utility.yul\":949:1002   */\n      tag_45\n        /* \"#utility.yul\":994:1001   */\n      dup5\n        /* \"#utility.yul\":985:991   */\n      dup3\n        /* \"#utility.yul\":974:983   */\n      dup6\n        /* \"#utility.yul\":970:992   */\n      add\n        /* \"#utility.yul\":949:1002   */\n      tag_25\n      jump\t// in\n    tag_45:\n        /* \"#utility.yul\":939:1002   */\n      swap2\n      pop\n        /* \"#utility.yul\":895:1012   */\n      pop\n        /* \"#utility.yul\":690:1019   */\n      swap3\n      swap2\n      pop\n      pop\n      jump\t// out\n        /* \"#utility.yul\":1025:1151   */\n    tag_26:\n        /* \"#utility.yul\":1062:1069   */\n      0x00\n        /* \"#utility.yul\":1102:1144   */\n      0xffffffffffffffffffffffffffffffffffffffff\n        /* \"#utility.yul\":1095:1100   */\n      dup3\n        /* \"#utility.yul\":1091:1145   */\n      and\n        /* \"#utility.yul\":1080:1145   */\n      swap1\n      pop\n        /* \"#utility.yul\":1025:1151   */\n      swap2\n      swap1\n      pop\n      jump\t// out\n        /* \"#utility.yul\":1157:1217   */\n    tag_27:\n        /* \"#utility.yul\":1185:1188   */\n      0x00\n        /* \"#utility.yul\":1206:1211   */\n      dup2\n        /* \"#utility.yul\":1199:1211   */\n      swap1\n      pop\n        /* \"#utility.yul\":1157:1217   */\n      swap2\n      swap1\n      pop\n      jump\t// out\n        /* \"#utility.yul\":1223:1365   */\n    tag_28:\n        /* \"#utility.yul\":1273:1282   */\n      0x00\n        /* \"#utility.yul\":1306:1359   */\n      tag_49\n        /* \"#utility.yul\":1324:1358   */\n      tag_50\n        /* \"#utility.yul\":1333:1357   */\n      tag_51\n        /* \"#utility.yul\":1351:1356   */\n      dup5\n        /* \"#utility.yul\":1333:1357   */\n      tag_26\n      jump\t// in\n    tag_51:\n        /* \"#utility.yul\":1324:1358   */\n      tag_27\n      jump\t// in\n    tag_50:\n        /* \"#utility.yul\":1306:1359   */\n      tag_26\n      jump\t// in\n    tag_49:\n        /* \"#utility.yul\":1293:1359   */\n      swap1\n      pop\n        /* \"#utility.yul\":1223:1365   */\n      swap2\n      swap1\n      pop\n      jump\t// out\n        /* \"#utility.yul\":1371:1497   */\n    tag_29:\n        /* \"#utility.yul\":1421:1430   */\n      0x00\n        /* \"#utility.yul\":1454:1491   */\n      tag_53\n        /* \"#utility.yul\":1485:1490   */\n      dup3\n        /* \"#utility.yul\":1454:1491   */\n      tag_28\n      jump\t// in\n    tag_53:\n        /* \"#utility.yul\":1441:1491   */\n      swap1\n      pop\n        /* \"#utility.yul\":1371:1497   */\n      swap2\n      swap1\n      pop\n      jump\t// out\n        /* \"#utility.yul\":1503:1649   */\n    tag_30:\n        /* \"#utility.yul\":1573:1582   */\n      0x00\n        /* \"#utility.yul\":1606:1643   */\n      tag_55\n        /* \"#utility.yul\":1637:1642   */\n      dup3\n        /* \"#utility.yul\":1606:1643   */\n      tag_29\n      jump\t// in\n    tag_55:\n        /* \"#utility.yul\":1593:1643   */\n      swap1\n      pop\n        /* \"#utility.yul\":1503:1649   */\n      swap2\n      swap1\n      pop\n      jump\t// out\n        /* \"#utility.yul\":1655:1826   */\n    tag_31:\n        /* \"#utility.yul\":1762:1819   */\n      tag_57\n        /* \"#utility.yul\":1813:1818   */\n      dup2\n        /* \"#utility.yul\":1762:1819   */\n      tag_30\n      jump\t// in\n    tag_57:\n        /* \"#utility.yul\":1757:1760   */\n      dup3\n        /* \"#utility.yul\":1750:1820   */\n      mstore\n        /* \"#utility.yul\":1655:1826   */\n      pop\n      pop\n      jump\t// out\n        /* \"#utility.yul\":1832:2094   */\n    tag_12:\n        /* \"#utility.yul\":1945:1949   */\n      0x00\n        /* \"#utility.yul\":1983:1985   */\n      0x20\n        /* \"#utility.yul\":1972:1981   */\n      dup3\n        /* \"#utility.yul\":1968:1986   */\n      add\n        /* \"#utility.yul\":1960:1986   */\n      swap1\n      pop\n        /* \"#utility.yul\":1996:2087   */\n      tag_59\n        /* \"#utility.yul\":2084:2085   */\n      0x00\n        /* \"#utility.yul\":2073:2082   */\n      dup4\n        /* \"#utility.yul\":2069:2086   */\n      add\n        /* \"#utility.yul\":2060:2066   */\n      dup5\n        /* \"#utility.yul\":1996:2087   */\n      tag_31\n      jump\t// in\n    tag_59:\n        /* \"#utility.yul\":1832:2094   */\n      swap3\n      swap2\n      pop\n      pop\n      jump\t// out\n    stop\n\n    sub_0: assembly {\n            /* \"contracts/storage/storage.sol\":148:1176  contract SimpleStorage{... */\n          mstore(0x40, 0x80)\n            /* \"contracts/storage/storage.sol\":436:501  People(25,0x606C71aD246DFD42497C1F5a8b91dE1de13BffFe,\"Deepmalya\") */\n          mload(0x40)\n          dup1\n          0x60\n          add\n          0x40\n          mstore\n          dup1\n            /* \"contracts/storage/storage.sol\":443:445  25 */\n          0x19\n            /* \"contracts/storage/storage.sol\":436:501  People(25,0x606C71aD246DFD42497C1F5a8b91dE1de13BffFe,\"Deepmalya\") */\n          dup2\n          mstore\n          0x20\n          add\n            /* \"contracts/storage/storage.sol\":446:488  0x606C71aD246DFD42497C1F5a8b91dE1de13BffFe */\n          0x606c71ad246dfd42497c1f5a8b91de1de13bfffe\n            /* \"contracts/storage/storage.sol\":436:501  People(25,0x606C71aD246DFD42497C1F5a8b91dE1de13BffFe,\"Deepmalya\") */\n          0xffffffffffffffffffffffffffffffffffffffff\n          and\n          dup2\n          mstore\n          0x20\n          add\n          mload(0x40)\n          dup1\n          0x40\n          add\n          0x40\n          mstore\n          dup1\n          0x09\n          dup2\n          mstore\n          0x20\n          add\n          0x446565706d616c79610000000000000000000000000000000000000000000000\n          dup2\n          mstore\n          pop\n          dup2\n          mstore\n          pop\n            /* \"contracts/storage/storage.sol\":415:501  People public Person=People(25,0x606C71aD246DFD42497C1F5a8b91dE1de13BffFe,\"Deepmalya\") */\n          0x00\n          0x00\n          dup3\n          add\n          mload\n          dup2\n          0x00\n          add\n          sstore\n          0x20\n          dup3\n          add\n          mload\n          dup2\n          0x01\n          add\n          exp(0x0100, 0x00)\n          dup2\n          sload\n          dup2\n          0xffffffffffffffffffffffffffffffffffffffff\n          mul\n          not\n          and\n          swap1\n          dup4\n          0xffffffffffffffffffffffffffffffffffffffff\n          and\n          mul\n          or\n          swap1\n          sstore\n          pop\n          0x40\n          dup3\n          add\n          mload\n          dup2\n          0x02\n          add\n          swap1\n          dup2\n          tag_1\n          swap2\n          swap1\n          tag_2\n          jump\t// in\n        tag_1:\n          pop\n          pop\n          pop\n            /* \"contracts/storage/storage.sol\":148:1176  contract SimpleStorage{... */\n          callvalue\n          dup1\n          iszero\n          tag_3\n          jumpi\n          revert(0x00, 0x00)\n        tag_3:\n          pop\n          jump(tag_4)\n            /* \"#utility.yul\":7:106   */\n        tag_5:\n            /* \"#utility.yul\":59:65   */\n          0x00\n            /* \"#utility.yul\":93:98   */\n          dup2\n            /* \"#utility.yul\":87:99   */\n          mload\n            /* \"#utility.yul\":77:99   */\n          swap1\n          pop\n            /* \"#utility.yul\":7:106   */\n          swap2\n          swap1\n          pop\n          jump\t// out\n            /* \"#utility.yul\":112:292   */\n        tag_6:\n            /* \"#utility.yul\":160:237   */\n          0x4e487b7100000000000000000000000000000000000000000000000000000000\n            /* \"#utility.yul\":157:158   */\n          0x00\n            /* \"#utility.yul\":150:238   */\n          mstore\n            /* \"#utility.yul\":257:261   */\n          0x41\n            /* \"#utility.yul\":254:255   */\n          0x04\n            /* \"#utility.yul\":247:262   */\n          mstore\n            /* \"#utility.yul\":281:285   */\n          0x24\n            /* \"#utility.yul\":278:279   */\n          0x00\n            /* \"#utility.yul\":271:286   */\n          revert\n            /* \"#utility.yul\":298:478   */\n        tag_7:\n            /* \"#utility.yul\":346:423   */\n          0x4e487b7100000000000000000000000000000000000000000000000000000000\n            /* \"#utility.yul\":343:344   */\n          0x00\n            /* \"#utility.yul\":336:424   */\n          mstore\n            /* \"#utility.yul\":443:447   */\n          0x22\n            /* \"#utility.yul\":440:441   */\n          0x04\n            /* \"#utility.yul\":433:448   */\n          mstore\n            /* \"#utility.yul\":467:471   */\n          0x24\n            /* \"#utility.yul\":464:465   */\n          0x00\n            /* \"#utility.yul\":457:472   */\n          revert\n            /* \"#utility.yul\":484:804   */\n        tag_8:\n            /* \"#utility.yul\":528:534   */\n          0x00\n            /* \"#utility.yul\":565:566   */\n          0x02\n            /* \"#utility.yul\":559:563   */\n          dup3\n            /* \"#utility.yul\":555:567   */\n          div\n            /* \"#utility.yul\":545:567   */\n          swap1\n          pop\n            /* \"#utility.yul\":612:613   */\n          0x01\n            /* \"#utility.yul\":606:610   */\n          dup3\n            /* \"#utility.yul\":602:614   */\n          and\n            /* \"#utility.yul\":633:651   */\n          dup1\n            /* \"#utility.yul\":623:704   */\n          tag_30\n          jumpi\n            /* \"#utility.yul\":689:693   */\n          0x7f\n            /* \"#utility.yul\":681:687   */\n          dup3\n            /* \"#utility.yul\":677:694   */\n          and\n            /* \"#utility.yul\":667:694   */\n          swap2\n          pop\n            /* \"#utility.yul\":623:704   */\n        tag_30:\n            /* \"#utility.yul\":751:753   */\n          0x20\n            /* \"#utility.yul\":743:749   */\n          dup3\n            /* \"#utility.yul\":740:754   */\n          lt\n            /* \"#utility.yul\":720:738   */\n          dup2\n            /* \"#utility.yul\":717:755   */\n          sub\n            /* \"#utility.yul\":714:798   */\n          tag_31\n          jumpi\n            /* \"#utility.yul\":770:788   */\n          tag_32\n          tag_7\n          jump\t// in\n        tag_32:\n            /* \"#utility.yul\":714:798   */\n        tag_31:\n            /* \"#utility.yul\":535:804   */\n          pop\n            /* \"#utility.yul\":484:804   */\n          swap2\n          swap1\n          pop\n          jump\t// out\n            /* \"#utility.yul\":810:951   */\n        tag_9:\n            /* \"#utility.yul\":859:863   */\n          0x00\n            /* \"#utility.yul\":882:885   */\n          dup2\n            /* \"#utility.yul\":874:885   */\n          swap1\n          pop\n            /* \"#utility.yul\":905:908   */\n          dup2\n            /* \"#utility.yul\":902:903   */\n          0x00\n            /* \"#utility.yul\":895:909   */\n          mstore\n            /* \"#utility.yul\":939:943   */\n          0x20\n            /* \"#utility.yul\":936:937   */\n          0x00\n            /* \"#utility.yul\":926:944   */\n          keccak256\n            /* \"#utility.yul\":918:944   */\n          swap1\n          pop\n            /* \"#utility.yul\":810:951   */\n          swap2\n          swap1\n          pop\n          jump\t// out\n            /* \"#utility.yul\":957:1050   */\n        tag_10:\n            /* \"#utility.yul\":994:1000   */\n          0x00\n            /* \"#utility.yul\":1041:1043   */\n          0x20\n            /* \"#utility.yul\":1036:1038   */\n          0x1f\n            /* \"#utility.yul\":1029:1034   */\n          dup4\n            /* \"#utility.yul\":1025:1039   */\n          add\n            /* \"#utility.yul\":1021:1044   */\n          div\n            /* \"#utility.yul\":1011:1044   */\n          swap1\n          pop\n            /* \"#utility.yul\":957:1050   */\n          swap2\n          swap1\n          pop\n          jump\t// out\n            /* \"#utility.yul\":1056:1163   */\n        tag_11:\n            /* \"#utility.yul\":1100:1108   */\n          0x00\n            /* \"#utility.yul\":1150:1155   */\n          dup3\n            /* \"#utility.yul\":1144:1148   */\n          dup3\n            /* \"#utility.yul\":1140:1156   */\n          shl\n            /* \"#utility.yul\":1119:1156   */\n          swap1\n          pop\n            /* \"#utility.yul\":1056:1163   */\n          swap3\n          swap2\n          pop\n          pop\n          jump\t// out\n            /* \"#utility.yul\":1169:1562   */\n        tag_12:\n            /* \"#utility.yul\":1238:1244   */\n          0x00\n            /* \"#utility.yul\":1288:1289   */\n          0x08\n            /* \"#utility.yul\":1276:1286   */\n          dup4\n            /* \"#utility.yul\":1272:1290   */\n          mul\n            /* \"#utility.yul\":1311:1408   */\n          tag_37\n            /* \"#utility.yul\":1341:1407   */\n          0xffffffffffffffffffffffffffffffffffffffffffffffffffffffffffffffff\n            /* \"#utility.yul\":1330:1339   */\n          dup3\n            /* \"#utility.yul\":1311:1408   */\n          tag_11\n          jump\t// in\n        tag_37:\n            /* \"#utility.yul\":1429:1468   */\n          tag_38\n            /* \"#utility.yul\":1459:1467   */\n          dup7\n            /* \"#utility.yul\":1448:1457   */\n          dup4\n            /* \"#utility.yul\":1429:1468   */\n          tag_11\n          jump\t// in\n        tag_38:\n            /* \"#utility.yul\":1417:1468   */\n          swap6\n          pop\n            /* \"#utility.yul\":1501:1505   */\n          dup1\n            /* \"#utility.yul\":1497:1506   */\n          not\n            /* \"#utility.yul\":1490:1495   */\n          dup5\n            /* \"#utility.yul\":1486:1507   */\n          and\n            /* \"#utility.yul\":1477:1507   */\n          swap4\n          pop\n            /* \"#utility.yul\":1550:1554   */\n          dup1\n            /* \"#utility.yul\":1540:1548   */\n          dup7\n            /* \"#utility.yul\":1536:1555   */\n          and\n            /* \"#utility.yul\":1529:1534   */\n          dup5\n            /* \"#utility.yul\":1526:1556   */\n          or\n            /* \"#utility.yul\":1516:1556   */\n          swap3\n          pop\n            /* \"#utility.yul\":1245:1562   */\n          pop\n          pop\n            /* \"#utility.yul\":1169:1562   */\n          swap4\n          swap3\n          pop\n          pop\n          pop\n          jump\t// out\n            /* \"#utility.yul\":1568:1645   */\n        tag_13:\n            /* \"#utility.yul\":1605:1612   */\n          0x00\n            /* \"#utility.yul\":1634:1639   */\n          dup2\n            /* \"#utility.yul\":1623:1639   */\n          swap1\n          pop\n            /* \"#utility.yul\":1568:1645   */\n          swap2\n          swap1\n          pop\n          jump\t// out\n            /* \"#utility.yul\":1651:1711   */\n        tag_14:\n            /* \"#utility.yul\":1679:1682   */\n          0x00\n            /* \"#utility.yul\":1700:1705   */\n          dup2\n            /* \"#utility.yul\":1693:1705   */\n          swap1\n          pop\n            /* \"#utility.yul\":1651:1711   */\n          swap2\n          swap1\n          pop\n          jump\t// out\n            /* \"#utility.yul\":1717:1859   */\n        tag_15:\n            /* \"#utility.yul\":1767:1776   */\n          0x00\n            /* \"#utility.yul\":1800:1853   */\n          tag_42\n            /* \"#utility.yul\":1818:1852   */\n          tag_43\n            /* \"#utility.yul\":1827:1851   */\n          tag_44\n            /* \"#utility.yul\":1845:1850   */\n          dup5\n            /* \"#utility.yul\":1827:1851   */\n          tag_13\n          jump\t// in\n        tag_44:\n            /* \"#utility.yul\":1818:1852   */\n          tag_14\n          jump\t// in\n        tag_43:\n            /* \"#utility.yul\":1800:1853   */\n          tag_13\n          jump\t// in\n        tag_42:\n            /* \"#utility.yul\":1787:1853   */\n          swap1\n          pop\n            /* \"#utility.yul\":1717:1859   */\n          swap2\n          swap1\n          pop\n          jump\t// out\n            /* \"#utility.yul\":1865:1940   */\n        tag_16:\n            /* \"#utility.yul\":1908:1911   */\n          0x00\n            /* \"#utility.yul\":1929:1934   */\n          dup2\n            /* \"#utility.yul\":1922:1934   */\n          swap1\n          pop\n            /* \"#utility.yul\":1865:1940   */\n          swap2\n          swap1\n          pop\n          jump\t// out\n            /* \"#utility.yul\":1946:2215   */\n        tag_17:\n            /* \"#utility.yul\":2056:2095   */\n          tag_47\n            /* \"#utility.yul\":2087:2094   */\n          dup4\n            /* \"#utility.yul\":2056:2095   */\n          tag_15\n          jump\t// in\n        tag_47:\n            /* \"#utility.yul\":2117:2208   */\n          tag_48\n            /* \"#utility.yul\":2166:2207   */\n          tag_49\n            /* \"#utility.yul\":2190:2206   */\n          dup3\n            /* \"#utility.yul\":2166:2207   */\n          tag_16\n          jump\t// in\n        tag_49:\n            /* \"#utility.yul\":2158:2164   */\n          dup5\n            /* \"#utility.yul\":2151:2155   */\n          dup5\n            /* \"#utility.yul\":2145:2156   */\n          sload\n            /* \"#utility.yul\":2117:2208   */\n          tag_12\n          jump\t// in\n        tag_48:\n            /* \"#utility.yul\":2111:2115   */\n          dup3\n            /* \"#utility.yul\":2104:2209   */\n          sstore\n            /* \"#utility.yul\":2022:2215   */\n          pop\n            /* \"#utility.yul\":1946:2215   */\n          pop\n          pop\n          pop\n          jump\t// out\n            /* \"#utility.yul\":2221:2294   */\n        tag_18:\n            /* \"#utility.yul\":2266:2269   */\n          0x00\n            /* \"#utility.yul\":2287:2288   */\n          0x00\n            /* \"#utility.yul\":2280:2288   */\n          swap1\n          pop\n            /* \"#utility.yul\":2221:2294   */\n          swap1\n          jump\t// out\n            /* \"#utility.yul\":2300:2489   */\n        tag_19:\n            /* \"#utility.yul\":2377:2409   */\n          tag_52\n          tag_18\n          jump\t// in\n        tag_52:\n            /* \"#utility.yul\":2418:2483   */\n          tag_53\n            /* \"#utility.yul\":2476:2482   */\n          dup2\n            /* \"#utility.yul\":2468:2474   */\n          dup5\n            /* \"#utility.yul\":2462:2466   */\n          dup5\n            /* \"#utility.yul\":2418:2483   */\n          tag_17\n          jump\t// in\n        tag_53:\n            /* \"#utility.yul\":2353:2489   */\n          pop\n            /* \"#utility.yul\":2300:2489   */\n          pop\n          pop\n          jump\t// out\n            /* \"#utility.yul\":2495:2681   */\n        tag_20:\n            /* \"#utility.yul\":2555:2675   */\n        tag_55:\n            /* \"#utility.yul\":2572:2575   */\n          dup2\n            /* \"#utility.yul\":2565:2570   */\n          dup2\n            /* \"#utility.yul\":2562:2576   */\n          lt\n            /* \"#utility.yul\":2555:2675   */\n          iszero\n          tag_57\n          jumpi\n            /* \"#utility.yul\":2626:2665   */\n          tag_58\n            /* \"#utility.yul\":2663:2664   */\n          0x00\n            /* \"#utility.yul\":2656:2661   */\n          dup3\n            /* \"#utility.yul\":2626:2665   */\n          tag_19\n          jump\t// in\n        tag_58:\n            /* \"#utility.yul\":2599:2600   */\n          0x01\n            /* \"#utility.yul\":2592:2597   */\n          dup2\n            /* \"#utility.yul\":2588:2601   */\n          add\n            /* \"#utility.yul\":2579:2601   */\n          swap1\n          pop\n            /* \"#utility.yul\":2555:2675   */\n          jump(tag_55)\n        tag_57:\n            /* \"#utility.yul\":2495:2681   */\n          pop\n          pop\n          jump\t// out\n            /* \"#utility.yul\":2687:3230   */\n        tag_21:\n            /* \"#utility.yul\":2788:2790   */\n          0x1f\n            /* \"#utility.yul\":2783:2786   */\n          dup3\n            /* \"#utility.yul\":2780:2791   */\n          gt\n            /* \"#utility.yul\":2777:3223   */\n          iszero\n          tag_60\n          jumpi\n            /* \"#utility.yul\":2822:2860   */\n          tag_61\n            /* \"#utility.yul\":2854:2859   */\n          dup2\n            /* \"#utility.yul\":2822:2860   */\n          tag_9\n          jump\t// in\n        tag_61:\n            /* \"#utility.yul\":2906:2935   */\n          tag_62\n            /* \"#utility.yul\":2924:2934   */\n          dup5\n            /* \"#utility.yul\":2906:2935   */\n          tag_10\n          jump\t// in\n        tag_62:\n            /* \"#utility.yul\":2896:2904   */\n          dup2\n            /* \"#utility.yul\":2892:2936   */\n          add\n            /* \"#utility.yul\":3089:3091   */\n          0x20\n            /* \"#utility.yul\":3077:3087   */\n          dup6\n            /* \"#utility.yul\":3074:3092   */\n          lt\n            /* \"#utility.yul\":3071:3120   */\n          iszero\n          tag_63\n          jumpi\n            /* \"#utility.yul\":3110:3118   */\n          dup2\n            /* \"#utility.yul\":3095:3118   */\n          swap1\n          pop\n            /* \"#utility.yul\":3071:3120   */\n        tag_63:\n            /* \"#utility.yul\":3133:3213   */\n          tag_64\n            /* \"#utility.yul\":3189:3211   */\n          tag_65\n            /* \"#utility.yul\":3207:3210   */\n          dup6\n            /* \"#utility.yul\":3189:3211   */\n          tag_10\n          jump\t// in\n        tag_65:\n            /* \"#utility.yul\":3179:3187   */\n          dup4\n            /* \"#utility.yul\":3175:3212   */\n          add\n            /* \"#utility.yul\":3162:3173   */\n          dup3\n            /* \"#utility.yul\":3133:3213   */\n          tag_20\n          jump\t// in\n        tag_64:\n            /* \"#utility.yul\":2792:3223   */\n          pop\n          pop\n            /* \"#utility.yul\":2777:3223   */\n        tag_60:\n            /* \"#utility.yul\":2687:3230   */\n          pop\n          pop\n          pop\n          jump\t// out\n            /* \"#utility.yul\":3236:3353   */\n        tag_22:\n            /* \"#utility.yul\":3290:3298   */\n          0x00\n            /* \"#utility.yul\":3340:3345   */\n          dup3\n            /* \"#utility.yul\":3334:3338   */\n          dup3\n            /* \"#utility.yul\":3330:3346   */\n          shr\n            /* \"#utility.yul\":3309:3346   */\n          swap1\n          pop\n            /* \"#utility.yul\":3236:3353   */\n          swap3\n          swap2\n          pop\n          pop\n          jump\t// out\n            /* \"#utility.yul\":3359:3528   */\n        tag_23:\n            /* \"#utility.yul\":3403:3409   */\n          0x00\n            /* \"#utility.yul\":3436:3487   */\n          tag_68\n            /* \"#utility.yul\":3484:3485   */\n          0x00\n            /* \"#utility.yul\":3480:3486   */\n          not\n            /* \"#utility.yul\":3472:3477   */\n          dup5\n            /* \"#utility.yul\":3469:3470   */\n          0x08\n            /* \"#utility.yul\":3465:3478   */\n          mul\n            /* \"#utility.yul\":3436:3487   */\n          tag_22\n          jump\t// in\n        tag_68:\n            /* \"#utility.yul\":3432:3488   */\n          not\n            /* \"#utility.yul\":3517:3521   */\n          dup1\n            /* \"#utility.yul\":3511:3515   */\n          dup4\n            /* \"#utility.yul\":3507:3522   */\n          and\n            /* \"#utility.yul\":3497:3522   */\n          swap2\n          pop\n            /* \"#utility.yul\":3410:3528   */\n          pop\n            /* \"#utility.yul\":3359:3528   */\n          swap3\n          swap2\n          pop\n          pop\n          jump\t// out\n            /* \"#utility.yul\":3533:3828   */\n        tag_24:\n            /* \"#utility.yul\":3609:3613   */\n          0x00\n            /* \"#utility.yul\":3755:3784   */\n          tag_70\n            /* \"#utility.yul\":3780:3783   */\n          dup4\n            /* \"#utility.yul\":3774:3778   */\n          dup4\n            /* \"#utility.yul\":3755:3784   */\n          tag_23\n          jump\t// in\n        tag_70:\n            /* \"#utility.yul\":3747:3784   */\n          swap2\n          pop\n            /* \"#utility.yul\":3817:3820   */\n          dup3\n            /* \"#utility.yul\":3814:3815   */\n          0x02\n            /* \"#utility.yul\":3810:3821   */\n          mul\n            /* \"#utility.yul\":3804:3808   */\n          dup3\n            /* \"#utility.yul\":3801:3822   */\n          or\n            /* \"#utility.yul\":3793:3822   */\n          swap1\n          pop\n            /* \"#utility.yul\":3533:3828   */\n          swap3\n          swap2\n          pop\n          pop\n          jump\t// out\n            /* \"#utility.yul\":3833:5228   */\n        tag_2:\n            /* \"#utility.yul\":3950:3987   */\n          tag_72\n            /* \"#utility.yul\":3983:3986   */\n          dup3\n            /* \"#utility.yul\":3950:3987   */\n          tag_5\n          jump\t// in\n        tag_72:\n            /* \"#utility.yul\":4052:4070   */\n          0xffffffffffffffff\n            /* \"#utility.yul\":4044:4050   */\n          dup2\n            /* \"#utility.yul\":4041:4071   */\n          gt\n            /* \"#utility.yul\":4038:4094   */\n          iszero\n          tag_73\n          jumpi\n            /* \"#utility.yul\":4074:4092   */\n          tag_74\n          tag_6\n          jump\t// in\n        tag_74:\n            /* \"#utility.yul\":4038:4094   */\n        tag_73:\n            /* \"#utility.yul\":4118:4156   */\n          tag_75\n            /* \"#utility.yul\":4150:4154   */\n          dup3\n            /* \"#utility.yul\":4144:4155   */\n          sload\n            /* \"#utility.yul\":4118:4156   */\n          tag_8\n          jump\t// in\n        tag_75:\n            /* \"#utility.yul\":4203:4270   */\n          tag_76\n            /* \"#utility.yul\":4263:4269   */\n          dup3\n            /* \"#utility.yul\":4255:4261   */\n          dup3\n            /* \"#utility.yul\":4249:4253   */\n          dup6\n            /* \"#utility.yul\":4203:4270   */\n          tag_21\n          jump\t// in\n        tag_76:\n            /* \"#utility.yul\":4297:4298   */\n          0x00\n            /* \"#utility.yul\":4321:4325   */\n          0x20\n            /* \"#utility.yul\":4308:4325   */\n          swap1\n          pop\n            /* \"#utility.yul\":4353:4355   */\n          0x1f\n            /* \"#utility.yul\":4345:4351   */\n          dup4\n            /* \"#utility.yul\":4342:4356   */\n          gt\n            /* \"#utility.yul\":4370:4371   */\n          0x01\n            /* \"#utility.yul\":4365:4983   */\n          dup2\n          eq\n          tag_78\n          jumpi\n            /* \"#utility.yul\":5027:5028   */\n          0x00\n            /* \"#utility.yul\":5044:5050   */\n          dup5\n            /* \"#utility.yul\":5041:5118   */\n          iszero\n          tag_79\n          jumpi\n            /* \"#utility.yul\":5093:5102   */\n          dup3\n            /* \"#utility.yul\":5088:5091   */\n          dup8\n            /* \"#utility.yul\":5084:5103   */\n          add\n            /* \"#utility.yul\":5078:5104   */\n          mload\n            /* \"#utility.yul\":5069:5104   */\n          swap1\n          pop\n            /* \"#utility.yul\":5041:5118   */\n        tag_79:\n            /* \"#utility.yul\":5144:5211   */\n          tag_80\n            /* \"#utility.yul\":5204:5210   */\n          dup6\n            /* \"#utility.yul\":5197:5202   */\n          dup3\n            /* \"#utility.yul\":5144:5211   */\n          tag_24\n          jump\t// in\n        tag_80:\n            /* \"#utility.yul\":5138:5142   */\n          dup7\n            /* \"#utility.yul\":5131:5212   */\n          sstore\n            /* \"#utility.yul\":5000:5222   */\n          pop\n            /* \"#utility.yul\":4335:5222   */\n          jump(tag_77)\n            /* \"#utility.yul\":4365:4983   */\n        tag_78:\n            /* \"#utility.yul\":4417:4421   */\n          0x1f\n            /* \"#utility.yul\":4413:4422   */\n          not\n            /* \"#utility.yul\":4405:4411   */\n          dup5\n            /* \"#utility.yul\":4401:4423   */\n          and\n            /* \"#utility.yul\":4451:4488   */\n          tag_81\n            /* \"#utility.yul\":4483:4487   */\n          dup7\n            /* \"#utility.yul\":4451:4488   */\n          tag_9\n          jump\t// in\n        tag_81:\n            /* \"#utility.yul\":4510:4511   */\n          0x00\n            /* \"#utility.yul\":4524:4732   */\n        tag_82:\n            /* \"#utility.yul\":4538:4545   */\n          dup3\n            /* \"#utility.yul\":4535:4536   */\n          dup2\n            /* \"#utility.yul\":4532:4546   */\n          lt\n            /* \"#utility.yul\":4524:4732   */\n          iszero\n          tag_84\n          jumpi\n            /* \"#utility.yul\":4617:4626   */\n          dup5\n            /* \"#utility.yul\":4612:4615   */\n          dup10\n            /* \"#utility.yul\":4608:4627   */\n          add\n            /* \"#utility.yul\":4602:4628   */\n          mload\n            /* \"#utility.yul\":4594:4600   */\n          dup3\n            /* \"#utility.yul\":4587:4629   */\n          sstore\n            /* \"#utility.yul\":4668:4669   */\n          0x01\n            /* \"#utility.yul\":4660:4666   */\n          dup3\n            /* \"#utility.yul\":4656:4670   */\n          add\n            /* \"#utility.yul\":4646:4670   */\n          swap2\n          pop\n            /* \"#utility.yul\":4715:4717   */\n          0x20\n            /* \"#utility.yul\":4704:4713   */\n          dup6\n            /* \"#utility.yul\":4700:4718   */\n          add\n            /* \"#utility.yul\":4687:4718   */\n          swap5\n          pop\n            /* \"#utility.yul\":4561:4565   */\n          0x20\n            /* \"#utility.yul\":4558:4559   */\n          dup2\n            /* \"#utility.yul\":4554:4566   */\n          add\n            /* \"#utility.yul\":4549:4566   */\n          swap1\n          pop\n            /* \"#utility.yul\":4524:4732   */\n          jump(tag_82)\n        tag_84:\n            /* \"#utility.yul\":4760:4766   */\n          dup7\n            /* \"#utility.yul\":4751:4758   */\n          dup4\n            /* \"#utility.yul\":4748:4767   */\n          lt\n            /* \"#utility.yul\":4745:4924   */\n          iszero\n          tag_85\n          jumpi\n            /* \"#utility.yul\":4818:4827   */\n          dup5\n            /* \"#utility.yul\":4813:4816   */\n          dup10\n            /* \"#utility.yul\":4809:4828   */\n          add\n            /* \"#utility.yul\":4803:4829   */\n          mload\n            /* \"#utility.yul\":4861:4909   */\n          tag_86\n            /* \"#utility.yul\":4903:4907   */\n          0x1f\n            /* \"#utility.yul\":4895:4901   */\n          dup10\n            /* \"#utility.yul\":4891:4908   */\n          and\n            /* \"#utility.yul\":4880:4889   */\n          dup3\n            /* \"#utility.yul\":4861:4909   */\n          tag_23\n          jump\t// in\n        tag_86:\n            /* \"#utility.yul\":4853:4859   */\n          dup4\n            /* \"#utility.yul\":4846:4910   */\n          sstore\n            /* \"#utility.yul\":4768:4924   */\n          pop\n            /* \"#utility.yul\":4745:4924   */\n        tag_85:\n            /* \"#utility.yul\":4970:4971   */\n          0x01\n            /* \"#utility.yul\":4966:4967   */\n          0x02\n            /* \"#utility.yul\":4958:4964   */\n          dup9\n            /* \"#utility.yul\":4954:4968   */\n          mul\n            /* \"#utility.yul\":4950:4972   */\n          add\n            /* \"#utility.yul\":4944:4948   */\n          dup9\n            /* \"#utility.yul\":4937:4973   */\n          sstore\n            /* \"#utility.yul\":4372:4983   */\n          pop\n          pop\n          pop\n            /* \"#utility.yul\":4335:5222   */\n        tag_77:\n          pop\n            /* \"#utility.yul\":3925:5228   */\n          pop\n          pop\n          pop\n            /* \"#utility.yul\":3833:5228   */\n          pop\n          pop\n          jump\t// out\n            /* \"contracts/storage/storage.sol\":148:1176  contract SimpleStorage{... */\n        tag_4:\n          dataSize(sub_0)\n          dup1\n          dataOffset(sub_0)\n          0x00\n          codecopy\n          0x00\n          return\n        stop\n\n        sub_0: assembly {\n                /* \"contracts/storage/storage.sol\":148:1176  contract SimpleStorage{... */\n              mstore(0x40, 0x80)\n              callvalue\n              dup1\n              iszero\n              tag_1\n              jumpi\n              revert(0x00, 0x00)\n            tag_1:\n              pop\n              jumpi(tag_2, lt(calldatasize, 0x04))\n              shr(0xe0, calldataload(0x00))\n              dup1\n              0x0ee28e37\n              eq\n              tag_3\n              jumpi\n              dup1\n              0x5319a9be\n              eq\n              tag_4\n              jumpi\n              dup1\n              0x9e7a13ad\n              eq\n              tag_5\n              jumpi\n            tag_2:\n              revert(0x00, 0x00)\n                /* \"contracts/storage/storage.sol\":415:501  People public Person=People(25,0x606C71aD246DFD42497C1F5a8b91dE1de13BffFe,\"Deepmalya\") */\n            tag_3:\n              tag_6\n              tag_7\n              jump\t// in\n            tag_6:\n              mload(0x40)\n              tag_8\n              swap4\n              swap3\n              swap2\n              swap1\n              tag_9\n              jump\t// in\n            tag_8:\n              mload(0x40)\n              dup1\n              swap2\n              sub\n              swap1\n              return\n                /* \"contracts/storage/storage.sol\":1038:1168  function addPeople(uint256 _num, address _add, string memory _name) public {... */\n            tag_4:\n              tag_10\n              0x04\n              dup1\n              calldatasize\n              sub\n              dup2\n              add\n              swap1\n              tag_11\n              swap2\n              swap1\n              tag_12\n              jump\t// in\n            tag_11:\n              tag_13\n              jump\t// in\n            tag_10:\n              stop\n                /* \"contracts/storage/storage.sol\":643:665  People[] public people */\n            tag_5:\n              tag_14\n              0x04\n              dup1\n              calldatasize\n              sub\n              dup2\n              add\n              swap1\n              tag_15\n              swap2\n              swap1\n              tag_16\n              jump\t// in\n            tag_15:\n              tag_17\n              jump\t// in\n            tag_14:\n              mload(0x40)\n              tag_18\n              swap4\n              swap3\n              swap2\n              swap1\n              tag_9\n              jump\t// in\n            tag_18:\n              mload(0x40)\n              dup1\n              swap2\n              sub\n              swap1\n              return\n                /* \"contracts/storage/storage.sol\":415:501  People public Person=People(25,0x606C71aD246DFD42497C1F5a8b91dE1de13BffFe,\"Deepmalya\") */\n            tag_7:\n              0x00\n              dup1\n              0x00\n              add\n              sload\n              swap1\n              dup1\n              0x01\n              add\n              0x00\n              swap1\n              sload\n              swap1\n              0x0100\n              exp\n              swap1\n              div\n              0xffffffffffffffffffffffffffffffffffffffff\n              and\n              swap1\n              dup1\n              0x02\n              add\n              dup1\n              sload\n              tag_19\n              swap1\n              tag_20\n              jump\t// in\n            tag_19:\n              dup1\n              0x1f\n              add\n              0x20\n              dup1\n              swap2\n              div\n              mul\n              0x20\n              add\n              mload(0x40)\n              swap1\n              dup2\n              add\n              0x40\n              mstore\n              dup1\n              swap3\n              swap2\n              swap1\n              dup2\n              dup2\n              mstore\n              0x20\n              add\n              dup3\n              dup1\n              sload\n              tag_21\n              swap1\n              tag_20\n              jump\t// in\n            tag_21:\n              dup1\n              iszero\n              tag_22\n              jumpi\n              dup1\n              0x1f\n              lt\n              tag_23\n              jumpi\n              0x0100\n              dup1\n              dup4\n              sload\n              div\n              mul\n              dup4\n              mstore\n              swap2\n              0x20\n              add\n              swap2\n              jump(tag_22)\n            tag_23:\n              dup3\n              add\n              swap2\n              swap1\n              0x00\n              mstore\n              keccak256(0x00, 0x20)\n              swap1\n            tag_24:\n              dup2\n              sload\n              dup2\n              mstore\n              swap1\n              0x01\n              add\n              swap1\n              0x20\n              add\n              dup1\n              dup4\n              gt\n              tag_24\n              jumpi\n              dup3\n              swap1\n              sub\n              0x1f\n              and\n              dup3\n              add\n              swap2\n            tag_22:\n              pop\n              pop\n              pop\n              pop\n              pop\n              swap1\n              pop\n              dup4\n              jump\t// out\n                /* \"contracts/storage/storage.sol\":1038:1168  function addPeople(uint256 _num, address _add, string memory _name) public {... */\n            tag_13:\n                /* \"contracts/storage/storage.sol\":1124:1130  people */\n              0x03\n                /* \"contracts/storage/storage.sol\":1136:1159  People(_num,_add,_name) */\n              mload(0x40)\n              dup1\n              0x60\n              add\n              0x40\n              mstore\n              dup1\n                /* \"contracts/storage/storage.sol\":1143:1147  _num */\n              dup6\n                /* \"contracts/storage/storage.sol\":1136:1159  People(_num,_add,_name) */\n              dup2\n              mstore\n              0x20\n              add\n                /* \"contracts/storage/storage.sol\":1148:1152  _add */\n              dup5\n                /* \"contracts/storage/storage.sol\":1136:1159  People(_num,_add,_name) */\n              0xffffffffffffffffffffffffffffffffffffffff\n              and\n              dup2\n              mstore\n              0x20\n              add\n                /* \"contracts/storage/storage.sol\":1153:1158  _name */\n              dup4\n                /* \"contracts/storage/storage.sol\":1136:1159  People(_num,_add,_name) */\n              dup2\n              mstore\n              pop\n                /* \"contracts/storage/storage.sol\":1124:1160  people.push(People(_num,_add,_name)) */\n              swap1\n              dup1\n              0x01\n              dup2\n              sload\n              add\n              dup1\n              dup3\n              sstore\n              dup1\n              swap2\n              pop\n              pop\n              0x01\n              swap1\n              sub\n              swap1\n              0x00\n              mstore\n              keccak256(0x00, 0x20)\n              swap1\n              0x03\n              mul\n              add\n              0x00\n              swap1\n              swap2\n              swap1\n              swap2\n              swap1\n              swap2\n              pop\n              0x00\n              dup3\n              add\n              mload\n              dup2\n              0x00\n              add\n              sstore\n              0x20\n              dup3\n              add\n              mload\n              dup2\n              0x01\n              add\n              exp(0x0100, 0x00)\n              dup2\n              sload\n              dup2\n              0xffffffffffffffffffffffffffffffffffffffff\n              mul\n              not\n              and\n              swap1\n              dup4\n              0xffffffffffffffffffffffffffffffffffffffff\n              and\n              mul\n              or\n              swap1\n              sstore\n              pop\n              0x40\n              dup3\n              add\n              mload\n              dup2\n              0x02\n              add\n              swap1\n              dup2\n              tag_27\n              swap2\n              swap1\n              tag_28\n              jump\t// in\n            tag_27:\n              pop\n              pop\n              pop\n                /* \"contracts/storage/storage.sol\":1038:1168  function addPeople(uint256 _num, address _add, string memory _name) public {... */\n              pop\n              pop\n              pop\n              jump\t// out\n                /* \"contracts/storage/storage.sol\":643:665  People[] public people */\n            tag_17:\n              0x03\n              dup2\n              dup2\n              sload\n              dup2\n              lt\n              tag_29\n              jumpi\n              0x00\n              dup1\n              revert\n            tag_29:\n              swap1\n              0x00\n              mstore\n              keccak256(0x00, 0x20)\n              swap1\n              0x03\n              mul\n              add\n              0x00\n              swap2\n              pop\n              swap1\n              pop\n              dup1\n              0x00\n              add\n              sload\n              swap1\n              dup1\n              0x01\n              add\n              0x00\n              swap1\n              sload\n              swap1\n              0x0100\n              exp\n              swap1\n              div\n              0xffffffffffffffffffffffffffffffffffffffff\n              and\n              swap1\n              dup1\n              0x02\n              add\n              dup1\n              sload\n              tag_31\n              swap1\n              tag_20\n              jump\t// in\n            tag_31:\n              dup1\n              0x1f\n              add\n              0x20\n              dup1\n              swap2\n              div\n              mul\n              0x20\n              add\n              mload(0x40)\n              swap1\n              dup2\n              add\n              0x40\n              mstore\n              dup1\n              swap3\n              swap2\n              swap1\n              dup2\n              dup2\n              mstore\n              0x20\n              add\n              dup3\n              dup1\n              sload\n              tag_32\n              swap1\n              tag_20\n              jump\t// in\n            tag_32:\n              dup1\n              iszero\n              tag_33\n              jumpi\n              dup1\n              0x1f\n              lt\n              tag_34\n              jumpi\n              0x0100\n              dup1\n              dup4\n              sload\n              div\n              mul\n              dup4\n              mstore\n              swap2\n              0x20\n              add\n              swap2\n              jump(tag_33)\n            tag_34:\n              dup3\n              add\n              swap2\n              swap1\n              0x00\n              mstore\n              keccak256(0x00, 0x20)\n              swap1\n            tag_35:\n              dup2\n              sload\n              dup2\n              mstore\n              swap1\n              0x01\n              add\n              swap1\n              0x20\n              add\n              dup1\n              dup4\n              gt\n              tag_35\n              jumpi\n              dup3\n              swap1\n              sub\n              0x1f\n              and\n              dup3\n              add\n              swap2\n            tag_33:\n              pop\n              pop\n              pop\n              pop\n              pop\n              swap1\n              pop\n              dup4\n              jump\t// out\n                /* \"#utility.yul\":7:84   */\n            tag_36:\n                /* \"#utility.yul\":44:51   */\n              0x00\n                /* \"#utility.yul\":73:78   */\n              dup2\n                /* \"#utility.yul\":62:78   */\n              swap1\n              pop\n                /* \"#utility.yul\":7:84   */\n              swap2\n              swap1\n              pop\n              jump\t// out\n                /* \"#utility.yul\":90:208   */\n            tag_37:\n                /* \"#utility.yul\":177:201   */\n              tag_81\n                /* \"#utility.yul\":195:200   */\n              dup2\n                /* \"#utility.yul\":177:201   */\n              tag_36\n              jump\t// in\n            tag_81:\n                /* \"#utility.yul\":172:175   */\n              dup3\n                /* \"#utility.yul\":165:202   */\n              mstore\n                /* \"#utility.yul\":90:208   */\n              pop\n              pop\n              jump\t// out\n                /* \"#utility.yul\":214:340   */\n            tag_38:\n                /* \"#utility.yul\":251:258   */\n              0x00\n                /* \"#utility.yul\":291:333   */\n              0xffffffffffffffffffffffffffffffffffffffff\n                /* \"#utility.yul\":284:289   */\n              dup3\n                /* \"#utility.yul\":280:334   */\n              and\n                /* \"#utility.yul\":269:334   */\n              swap1\n              pop\n                /* \"#utility.yul\":214:340   */\n              swap2\n              swap1\n              pop\n              jump\t// out\n                /* \"#utility.yul\":346:442   */\n            tag_39:\n                /* \"#utility.yul\":383:390   */\n              0x00\n                /* \"#utility.yul\":412:436   */\n              tag_84\n                /* \"#utility.yul\":430:435   */\n              dup3\n                /* \"#utility.yul\":412:436   */\n              tag_38\n              jump\t// in\n            tag_84:\n                /* \"#utility.yul\":401:436   */\n              swap1\n              pop\n                /* \"#utility.yul\":346:442   */\n              swap2\n              swap1\n              pop\n              jump\t// out\n                /* \"#utility.yul\":448:566   */\n            tag_40:\n                /* \"#utility.yul\":535:559   */\n              tag_86\n                /* \"#utility.yul\":553:558   */\n              dup2\n                /* \"#utility.yul\":535:559   */\n              tag_39\n              jump\t// in\n            tag_86:\n                /* \"#utility.yul\":530:533   */\n              dup3\n                /* \"#utility.yul\":523:560   */\n              mstore\n                /* \"#utility.yul\":448:566   */\n              pop\n              pop\n              jump\t// out\n                /* \"#utility.yul\":572:671   */\n            tag_41:\n                /* \"#utility.yul\":624:630   */\n              0x00\n                /* \"#utility.yul\":658:663   */\n              dup2\n                /* \"#utility.yul\":652:664   */\n              mload\n                /* \"#utility.yul\":642:664   */\n              swap1\n              pop\n                /* \"#utility.yul\":572:671   */\n              swap2\n              swap1\n              pop\n              jump\t// out\n                /* \"#utility.yul\":677:846   */\n            tag_42:\n                /* \"#utility.yul\":761:772   */\n              0x00\n                /* \"#utility.yul\":795:801   */\n              dup3\n                /* \"#utility.yul\":790:793   */\n              dup3\n                /* \"#utility.yul\":783:802   */\n              mstore\n                /* \"#utility.yul\":835:839   */\n              0x20\n                /* \"#utility.yul\":830:833   */\n              dup3\n                /* \"#utility.yul\":826:840   */\n              add\n                /* \"#utility.yul\":811:840   */\n              swap1\n              pop\n                /* \"#utility.yul\":677:846   */\n              swap3\n              swap2\n              pop\n              pop\n              jump\t// out\n                /* \"#utility.yul\":852:991   */\n            tag_43:\n                /* \"#utility.yul\":941:947   */\n              dup3\n                /* \"#utility.yul\":936:939   */\n              dup2\n                /* \"#utility.yul\":931:934   */\n              dup4\n                /* \"#utility.yul\":925:948   */\n              mcopy\n                /* \"#utility.yul\":982:983   */\n              0x00\n                /* \"#utility.yul\":973:979   */\n              dup4\n                /* \"#utility.yul\":968:971   */\n              dup4\n                /* \"#utility.yul\":964:980   */\n              add\n                /* \"#utility.yul\":957:984   */\n              mstore\n                /* \"#utility.yul\":852:991   */\n              pop\n              pop\n              pop\n              jump\t// out\n                /* \"#utility.yul\":997:1099   */\n            tag_44:\n                /* \"#utility.yul\":1038:1044   */\n              0x00\n                /* \"#utility.yul\":1089:1091   */\n              0x1f\n                /* \"#utility.yul\":1085:1092   */\n              not\n                /* \"#utility.yul\":1080:1082   */\n              0x1f\n                /* \"#utility.yul\":1073:1078   */\n              dup4\n                /* \"#utility.yul\":1069:1083   */\n              add\n                /* \"#utility.yul\":1065:1093   */\n              and\n                /* \"#utility.yul\":1055:1093   */\n              swap1\n              pop\n                /* \"#utility.yul\":997:1099   */\n              swap2\n              swap1\n              pop\n              jump\t// out\n                /* \"#utility.yul\":1105:1482   */\n            tag_45:\n                /* \"#utility.yul\":1193:1196   */\n              0x00\n                /* \"#utility.yul\":1221:1260   */\n              tag_92\n                /* \"#utility.yul\":1254:1259   */\n              dup3\n                /* \"#utility.yul\":1221:1260   */\n              tag_41\n              jump\t// in\n            tag_92:\n                /* \"#utility.yul\":1276:1347   */\n              tag_93\n                /* \"#utility.yul\":1340:1346   */\n              dup2\n                /* \"#utility.yul\":1335:1338   */\n              dup6\n                /* \"#utility.yul\":1276:1347   */\n              tag_42\n              jump\t// in\n            tag_93:\n                /* \"#utility.yul\":1269:1347   */\n              swap4\n              pop\n                /* \"#utility.yul\":1356:1421   */\n              tag_94\n                /* \"#utility.yul\":1414:1420   */\n              dup2\n                /* \"#utility.yul\":1409:1412   */\n              dup6\n                /* \"#utility.yul\":1402:1406   */\n              0x20\n                /* \"#utility.yul\":1395:1400   */\n              dup7\n                /* \"#utility.yul\":1391:1407   */\n              add\n                /* \"#utility.yul\":1356:1421   */\n              tag_43\n              jump\t// in\n            tag_94:\n                /* \"#utility.yul\":1446:1475   */\n              tag_95\n                /* \"#utility.yul\":1468:1474   */\n              dup2\n                /* \"#utility.yul\":1446:1475   */\n              tag_44\n              jump\t// in\n            tag_95:\n                /* \"#utility.yul\":1441:1444   */\n              dup5\n                /* \"#utility.yul\":1437:1476   */\n              add\n                /* \"#utility.yul\":1430:1476   */\n              swap2\n              pop\n                /* \"#utility.yul\":1197:1482   */\n              pop\n                /* \"#utility.yul\":1105:1482   */\n              swap3\n              swap2\n              pop\n              pop\n              jump\t// out\n                /* \"#utility.yul\":1488:2021   */\n            tag_9:\n                /* \"#utility.yul\":1657:1661   */\n              0x00\n                /* \"#utility.yul\":1695:1697   */\n              0x60\n                /* \"#utility.yul\":1684:1693   */\n              dup3\n                /* \"#utility.yul\":1680:1698   */\n              add\n                /* \"#utility.yul\":1672:1698   */\n              swap1\n              pop\n                /* \"#utility.yul\":1708:1779   */\n              tag_97\n                /* \"#utility.yul\":1776:1777   */\n              0x00\n                /* \"#utility.yul\":1765:1774   */\n              dup4\n                /* \"#utility.yul\":1761:1778   */\n              add\n                /* \"#utility.yul\":1752:1758   */\n              dup7\n                /* \"#utility.yul\":1708:1779   */\n              tag_37\n              jump\t// in\n            tag_97:\n                /* \"#utility.yul\":1789:1861   */\n              tag_98\n                /* \"#utility.yul\":1857:1859   */\n              0x20\n                /* \"#utility.yul\":1846:1855   */\n              dup4\n                /* \"#utility.yul\":1842:1860   */\n              add\n                /* \"#utility.yul\":1833:1839   */\n              dup6\n                /* \"#utility.yul\":1789:1861   */\n              tag_40\n              jump\t// in\n            tag_98:\n                /* \"#utility.yul\":1908:1917   */\n              dup2\n                /* \"#utility.yul\":1902:1906   */\n              dup2\n                /* \"#utility.yul\":1898:1918   */\n              sub\n                /* \"#utility.yul\":1893:1895   */\n              0x40\n                /* \"#utility.yul\":1882:1891   */\n              dup4\n                /* \"#utility.yul\":1878:1896   */\n              add\n                /* \"#utility.yul\":1871:1919   */\n              mstore\n                /* \"#utility.yul\":1936:2014   */\n              tag_99\n                /* \"#utility.yul\":2009:2013   */\n              dup2\n                /* \"#utility.yul\":2000:2006   */\n              dup5\n                /* \"#utility.yul\":1936:2014   */\n              tag_45\n              jump\t// in\n            tag_99:\n                /* \"#utility.yul\":1928:2014   */\n              swap1\n              pop\n                /* \"#utility.yul\":1488:2021   */\n              swap5\n              swap4\n              pop\n              pop\n              pop\n              pop\n              jump\t// out\n                /* \"#utility.yul\":2027:2102   */\n            tag_46:\n                /* \"#utility.yul\":2060:2066   */\n              0x00\n                /* \"#utility.yul\":2093:2095   */\n              0x40\n                /* \"#utility.yul\":2087:2096   */\n              mload\n                /* \"#utility.yul\":2077:2096   */\n              swap1\n              pop\n                /* \"#utility.yul\":2027:2102   */\n              swap1\n              jump\t// out\n                /* \"#utility.yul\":2108:2225   */\n            tag_47:\n                /* \"#utility.yul\":2217:2218   */\n              0x00\n                /* \"#utility.yul\":2214:2215   */\n              0x00\n                /* \"#utility.yul\":2207:2219   */\n              revert\n                /* \"#utility.yul\":2231:2348   */\n            tag_48:\n                /* \"#utility.yul\":2340:2341   */\n              0x00\n                /* \"#utility.yul\":2337:2338   */\n              0x00\n                /* \"#utility.yul\":2330:2342   */\n              revert\n                /* \"#utility.yul\":2354:2476   */\n            tag_49:\n                /* \"#utility.yul\":2427:2451   */\n              tag_104\n                /* \"#utility.yul\":2445:2450   */\n              dup2\n                /* \"#utility.yul\":2427:2451   */\n              tag_36\n              jump\t// in\n            tag_104:\n                /* \"#utility.yul\":2420:2425   */\n              dup2\n                /* \"#utility.yul\":2417:2452   */\n              eq\n                /* \"#utility.yul\":2407:2470   */\n              tag_105\n              jumpi\n                /* \"#utility.yul\":2466:2467   */\n              0x00\n                /* \"#utility.yul\":2463:2464   */\n              0x00\n                /* \"#utility.yul\":2456:2468   */\n              revert\n                /* \"#utility.yul\":2407:2470   */\n            tag_105:\n                /* \"#utility.yul\":2354:2476   */\n              pop\n              jump\t// out\n                /* \"#utility.yul\":2482:2621   */\n            tag_50:\n                /* \"#utility.yul\":2528:2533   */\n              0x00\n                /* \"#utility.yul\":2566:2572   */\n              dup2\n                /* \"#utility.yul\":2553:2573   */\n              calldataload\n                /* \"#utility.yul\":2544:2573   */\n              swap1\n              pop\n                /* \"#utility.yul\":2582:2615   */\n              tag_107\n                /* \"#utility.yul\":2609:2614   */\n              dup2\n                /* \"#utility.yul\":2582:2615   */\n              tag_49\n              jump\t// in\n            tag_107:\n                /* \"#utility.yul\":2482:2621   */\n              swap3\n              swap2\n              pop\n              pop\n              jump\t// out\n                /* \"#utility.yul\":2627:2749   */\n            tag_51:\n                /* \"#utility.yul\":2700:2724   */\n              tag_109\n                /* \"#utility.yul\":2718:2723   */\n              dup2\n                /* \"#utility.yul\":2700:2724   */\n              tag_39\n              jump\t// in\n            tag_109:\n                /* \"#utility.yul\":2693:2698   */\n              dup2\n                /* \"#utility.yul\":2690:2725   */\n              eq\n                /* \"#utility.yul\":2680:2743   */\n              tag_110\n              jumpi\n                /* \"#utility.yul\":2739:2740   */\n              0x00\n                /* \"#utility.yul\":2736:2737   */\n              0x00\n                /* \"#utility.yul\":2729:2741   */\n              revert\n                /* \"#utility.yul\":2680:2743   */\n            tag_110:\n                /* \"#utility.yul\":2627:2749   */\n              pop\n              jump\t// out\n                /* \"#utility.yul\":2755:2894   */\n            tag_52:\n                /* \"#utility.yul\":2801:2806   */\n              0x00\n                /* \"#utility.yul\":2839:2845   */\n              dup2\n                /* \"#utility.yul\":2826:2846   */\n              calldataload\n                /* \"#utility.yul\":2817:2846   */\n              swap1\n              pop\n                /* \"#utility.yul\":2855:2888   */\n              tag_112\n                /* \"#utility.yul\":2882:2887   */\n              dup2\n                /* \"#utility.yul\":2855:2888   */\n              tag_51\n              jump\t// in\n            tag_112:\n                /* \"#utility.yul\":2755:2894   */\n              swap3\n              swap2\n              pop\n              pop\n              jump\t// out\n                /* \"#utility.yul\":2900:3017   */\n            tag_53:\n                /* \"#utility.yul\":3009:3010   */\n              0x00\n                /* \"#utility.yul\":3006:3007   */\n              0x00\n                /* \"#utility.yul\":2999:3011   */\n              revert\n                /* \"#utility.yul\":3023:3140   */\n            tag_54:\n                /* \"#utility.yul\":3132:3133   */\n              0x00\n                /* \"#utility.yul\":3129:3130   */\n              0x00\n                /* \"#utility.yul\":3122:3134   */\n              revert\n                /* \"#utility.yul\":3146:3326   */\n            tag_55:\n                /* \"#utility.yul\":3194:3271   */\n              0x4e487b7100000000000000000000000000000000000000000000000000000000\n                /* \"#utility.yul\":3191:3192   */\n              0x00\n                /* \"#utility.yul\":3184:3272   */\n              mstore\n                /* \"#utility.yul\":3291:3295   */\n              0x41\n                /* \"#utility.yul\":3288:3289   */\n              0x04\n                /* \"#utility.yul\":3281:3296   */\n              mstore\n                /* \"#utility.yul\":3315:3319   */\n              0x24\n                /* \"#utility.yul\":3312:3313   */\n              0x00\n                /* \"#utility.yul\":3305:3320   */\n              revert\n                /* \"#utility.yul\":3332:3613   */\n            tag_56:\n                /* \"#utility.yul\":3415:3442   */\n              tag_117\n                /* \"#utility.yul\":3437:3441   */\n              dup3\n                /* \"#utility.yul\":3415:3442   */\n              tag_44\n              jump\t// in\n            tag_117:\n                /* \"#utility.yul\":3407:3413   */\n              dup2\n                /* \"#utility.yul\":3403:3443   */\n              add\n                /* \"#utility.yul\":3545:3551   */\n              dup2\n                /* \"#utility.yul\":3533:3543   */\n              dup2\n                /* \"#utility.yul\":3530:3552   */\n              lt\n                /* \"#utility.yul\":3509:3527   */\n              0xffffffffffffffff\n                /* \"#utility.yul\":3497:3507   */\n              dup3\n                /* \"#utility.yul\":3494:3528   */\n              gt\n                /* \"#utility.yul\":3491:3553   */\n              or\n                /* \"#utility.yul\":3488:3576   */\n              iszero\n              tag_118\n              jumpi\n                /* \"#utility.yul\":3556:3574   */\n              tag_119\n              tag_55\n              jump\t// in\n            tag_119:\n                /* \"#utility.yul\":3488:3576   */\n            tag_118:\n                /* \"#utility.yul\":3596:3606   */\n              dup1\n                /* \"#utility.yul\":3592:3594   */\n              0x40\n                /* \"#utility.yul\":3585:3607   */\n              mstore\n                /* \"#utility.yul\":3375:3613   */\n              pop\n                /* \"#utility.yul\":3332:3613   */\n              pop\n              pop\n              jump\t// out\n                /* \"#utility.yul\":3619:3748   */\n            tag_57:\n                /* \"#utility.yul\":3653:3659   */\n              0x00\n                /* \"#utility.yul\":3680:3700   */\n              tag_121\n              tag_46\n              jump\t// in\n            tag_121:\n                /* \"#utility.yul\":3670:3700   */\n              swap1\n              pop\n                /* \"#utility.yul\":3709:3742   */\n              tag_122\n                /* \"#utility.yul\":3737:3741   */\n              dup3\n                /* \"#utility.yul\":3729:3735   */\n              dup3\n                /* \"#utility.yul\":3709:3742   */\n              tag_56\n              jump\t// in\n            tag_122:\n                /* \"#utility.yul\":3619:3748   */\n              swap2\n              swap1\n              pop\n              jump\t// out\n                /* \"#utility.yul\":3754:4062   */\n            tag_58:\n                /* \"#utility.yul\":3816:3820   */\n              0x00\n                /* \"#utility.yul\":3906:3924   */\n              0xffffffffffffffff\n                /* \"#utility.yul\":3898:3904   */\n              dup3\n                /* \"#utility.yul\":3895:3925   */\n              gt\n                /* \"#utility.yul\":3892:3948   */\n              iszero\n              tag_124\n              jumpi\n                /* \"#utility.yul\":3928:3946   */\n              tag_125\n              tag_55\n              jump\t// in\n            tag_125:\n                /* \"#utility.yul\":3892:3948   */\n            tag_124:\n                /* \"#utility.yul\":3966:3995   */\n              tag_126\n                /* \"#utility.yul\":3988:3994   */\n              dup3\n                /* \"#utility.yul\":3966:3995   */\n              tag_44\n              jump\t// in\n            tag_126:\n                /* \"#utility.yul\":3958:3995   */\n              swap1\n              pop\n                /* \"#utility.yul\":4050:4054   */\n              0x20\n                /* \"#utility.yul\":4044:4048   */\n              dup2\n                /* \"#utility.yul\":4040:4055   */\n              add\n                /* \"#utility.yul\":4032:4055   */\n              swap1\n              pop\n                /* \"#utility.yul\":3754:4062   */\n              swap2\n              swap1\n              pop\n              jump\t// out\n                /* \"#utility.yul\":4068:4216   */\n            tag_59:\n                /* \"#utility.yul\":4166:4172   */\n              dup3\n                /* \"#utility.yul\":4161:4164   */\n              dup2\n                /* \"#utility.yul\":4156:4159   */\n              dup4\n                /* \"#utility.yul\":4143:4173   */\n              calldatacopy\n                /* \"#utility.yul\":4207:4208   */\n              0x00\n                /* \"#utility.yul\":4198:4204   */\n              dup4\n                /* \"#utility.yul\":4193:4196   */\n              dup4\n                /* \"#utility.yul\":4189:4205   */\n              add\n                /* \"#utility.yul\":4182:4209   */\n              mstore\n                /* \"#utility.yul\":4068:4216   */\n              pop\n              pop\n              pop\n              jump\t// out\n                /* \"#utility.yul\":4222:4647   */\n            tag_60:\n                /* \"#utility.yul\":4300:4305   */\n              0x00\n                /* \"#utility.yul\":4325:4391   */\n              tag_129\n                /* \"#utility.yul\":4341:4390   */\n              tag_130\n                /* \"#utility.yul\":4383:4389   */\n              dup5\n                /* \"#utility.yul\":4341:4390   */\n              tag_58\n              jump\t// in\n            tag_130:\n                /* \"#utility.yul\":4325:4391   */\n              tag_57\n              jump\t// in\n            tag_129:\n                /* \"#utility.yul\":4316:4391   */\n              swap1\n              pop\n                /* \"#utility.yul\":4414:4420   */\n              dup3\n                /* \"#utility.yul\":4407:4412   */\n              dup2\n                /* \"#utility.yul\":4400:4421   */\n              mstore\n                /* \"#utility.yul\":4452:4456   */\n              0x20\n                /* \"#utility.yul\":4445:4450   */\n              dup2\n                /* \"#utility.yul\":4441:4457   */\n              add\n                /* \"#utility.yul\":4490:4493   */\n              dup5\n                /* \"#utility.yul\":4481:4487   */\n              dup5\n                /* \"#utility.yul\":4476:4479   */\n              dup5\n                /* \"#utility.yul\":4472:4488   */\n              add\n                /* \"#utility.yul\":4469:4494   */\n              gt\n                /* \"#utility.yul\":4466:4578   */\n              iszero\n              tag_131\n              jumpi\n                /* \"#utility.yul\":4497:4576   */\n              tag_132\n              tag_54\n              jump\t// in\n            tag_132:\n                /* \"#utility.yul\":4466:4578   */\n            tag_131:\n                /* \"#utility.yul\":4587:4641   */\n              tag_133\n                /* \"#utility.yul\":4634:4640   */\n              dup5\n                /* \"#utility.yul\":4629:4632   */\n              dup3\n                /* \"#utility.yul\":4624:4627   */\n              dup6\n                /* \"#utility.yul\":4587:4641   */\n              tag_59\n              jump\t// in\n            tag_133:\n                /* \"#utility.yul\":4306:4647   */\n              pop\n                /* \"#utility.yul\":4222:4647   */\n              swap4\n              swap3\n              pop\n              pop\n              pop\n              jump\t// out\n                /* \"#utility.yul\":4667:5007   */\n            tag_61:\n                /* \"#utility.yul\":4723:4728   */\n              0x00\n                /* \"#utility.yul\":4772:4775   */\n              dup3\n                /* \"#utility.yul\":4765:4769   */\n              0x1f\n                /* \"#utility.yul\":4757:4763   */\n              dup4\n                /* \"#utility.yul\":4753:4770   */\n              add\n                /* \"#utility.yul\":4749:4776   */\n              slt\n                /* \"#utility.yul\":4739:4861   */\n              tag_135\n              jumpi\n                /* \"#utility.yul\":4780:4859   */\n              tag_136\n              tag_53\n              jump\t// in\n            tag_136:\n                /* \"#utility.yul\":4739:4861   */\n            tag_135:\n                /* \"#utility.yul\":4897:4903   */\n              dup2\n                /* \"#utility.yul\":4884:4904   */\n              calldataload\n                /* \"#utility.yul\":4922:5001   */\n              tag_137\n                /* \"#utility.yul\":4997:5000   */\n              dup5\n                /* \"#utility.yul\":4989:4995   */\n              dup3\n                /* \"#utility.yul\":4982:4986   */\n              0x20\n                /* \"#utility.yul\":4974:4980   */\n              dup7\n                /* \"#utility.yul\":4970:4987   */\n              add\n                /* \"#utility.yul\":4922:5001   */\n              tag_60\n              jump\t// in\n            tag_137:\n                /* \"#utility.yul\":4913:5001   */\n              swap2\n              pop\n                /* \"#utility.yul\":4729:5007   */\n              pop\n                /* \"#utility.yul\":4667:5007   */\n              swap3\n              swap2\n              pop\n              pop\n              jump\t// out\n                /* \"#utility.yul\":5013:5812   */\n            tag_12:\n                /* \"#utility.yul\":5100:5106   */\n              0x00\n                /* \"#utility.yul\":5108:5114   */\n              0x00\n                /* \"#utility.yul\":5116:5122   */\n              0x00\n                /* \"#utility.yul\":5165:5167   */\n              0x60\n                /* \"#utility.yul\":5153:5162   */\n              dup5\n                /* \"#utility.yul\":5144:5151   */\n              dup7\n                /* \"#utility.yul\":5140:5163   */\n              sub\n                /* \"#utility.yul\":5136:5168   */\n              slt\n                /* \"#utility.yul\":5133:5252   */\n              iszero\n              tag_139\n              jumpi\n                /* \"#utility.yul\":5171:5250   */\n              tag_140\n              tag_47\n              jump\t// in\n            tag_140:\n                /* \"#utility.yul\":5133:5252   */\n            tag_139:\n                /* \"#utility.yul\":5291:5292   */\n              0x00\n                /* \"#utility.yul\":5316:5369   */\n              tag_141\n                /* \"#utility.yul\":5361:5368   */\n              dup7\n                /* \"#utility.yul\":5352:5358   */\n              dup3\n                /* \"#utility.yul\":5341:5350   */\n              dup8\n                /* \"#utility.yul\":5337:5359   */\n              add\n                /* \"#utility.yul\":5316:5369   */\n              tag_50\n              jump\t// in\n            tag_141:\n                /* \"#utility.yul\":5306:5369   */\n              swap4\n              pop\n                /* \"#utility.yul\":5262:5379   */\n              pop\n                /* \"#utility.yul\":5418:5420   */\n              0x20\n                /* \"#utility.yul\":5444:5497   */\n              tag_142\n                /* \"#utility.yul\":5489:5496   */\n              dup7\n                /* \"#utility.yul\":5480:5486   */\n              dup3\n                /* \"#utility.yul\":5469:5478   */\n              dup8\n                /* \"#utility.yul\":5465:5487   */\n              add\n                /* \"#utility.yul\":5444:5497   */\n              tag_52\n              jump\t// in\n            tag_142:\n                /* \"#utility.yul\":5434:5497   */\n              swap3\n              pop\n                /* \"#utility.yul\":5389:5507   */\n              pop\n                /* \"#utility.yul\":5574:5576   */\n              0x40\n                /* \"#utility.yul\":5563:5572   */\n              dup5\n                /* \"#utility.yul\":5559:5577   */\n              add\n                /* \"#utility.yul\":5546:5578   */\n              calldataload\n                /* \"#utility.yul\":5605:5623   */\n              0xffffffffffffffff\n                /* \"#utility.yul\":5597:5603   */\n              dup2\n                /* \"#utility.yul\":5594:5624   */\n              gt\n                /* \"#utility.yul\":5591:5708   */\n              iszero\n              tag_143\n              jumpi\n                /* \"#utility.yul\":5627:5706   */\n              tag_144\n              tag_48\n              jump\t// in\n            tag_144:\n                /* \"#utility.yul\":5591:5708   */\n            tag_143:\n                /* \"#utility.yul\":5732:5795   */\n              tag_145\n                /* \"#utility.yul\":5787:5794   */\n              dup7\n                /* \"#utility.yul\":5778:5784   */\n              dup3\n                /* \"#utility.yul\":5767:5776   */\n              dup8\n                /* \"#utility.yul\":5763:5785   */\n              add\n                /* \"#utility.yul\":5732:5795   */\n              tag_61\n              jump\t// in\n            tag_145:\n                /* \"#utility.yul\":5722:5795   */\n              swap2\n              pop\n                /* \"#utility.yul\":5517:5805   */\n              pop\n                /* \"#utility.yul\":5013:5812   */\n              swap3\n              pop\n              swap3\n              pop\n              swap3\n              jump\t// out\n                /* \"#utility.yul\":5818:6147   */\n            tag_16:\n                /* \"#utility.yul\":5877:5883   */\n              0x00\n                /* \"#utility.yul\":5926:5928   */\n              0x20\n                /* \"#utility.yul\":5914:5923   */\n              dup3\n                /* \"#utility.yul\":5905:5912   */\n              dup5\n                /* \"#utility.yul\":5901:5924   */\n              sub\n                /* \"#utility.yul\":5897:5929   */\n              slt\n                /* \"#utility.yul\":5894:6013   */\n              iszero\n              tag_147\n              jumpi\n                /* \"#utility.yul\":5932:6011   */\n              tag_148\n              tag_47\n              jump\t// in\n            tag_148:\n                /* \"#utility.yul\":5894:6013   */\n            tag_147:\n                /* \"#utility.yul\":6052:6053   */\n              0x00\n                /* \"#utility.yul\":6077:6130   */\n              tag_149\n                /* \"#utility.yul\":6122:6129   */\n              dup5\n                /* \"#utility.yul\":6113:6119   */\n              dup3\n                /* \"#utility.yul\":6102:6111   */\n              dup6\n                /* \"#utility.yul\":6098:6120   */\n              add\n                /* \"#utility.yul\":6077:6130   */\n              tag_50\n              jump\t// in\n            tag_149:\n                /* \"#utility.yul\":6067:6130   */\n              swap2\n              pop\n                /* \"#utility.yul\":6023:6140   */\n              pop\n                /* \"#utility.yul\":5818:6147   */\n              swap3\n              swap2\n              pop\n              pop\n              jump\t// out\n                /* \"#utility.yul\":6153:6333   */\n            tag_62:\n                /* \"#utility.yul\":6201:6278   */\n              0x4e487b7100000000000000000000000000000000000000000000000000000000\n                /* \"#utility.yul\":6198:6199   */\n              0x00\n                /* \"#utility.yul\":6191:6279   */\n              mstore\n                /* \"#utility.yul\":6298:6302   */\n              0x22\n                /* \"#utility.yul\":6295:6296   */\n              0x04\n                /* \"#utility.yul\":6288:6303   */\n              mstore\n                /* \"#utility.yul\":6322:6326   */\n              0x24\n                /* \"#utility.yul\":6319:6320   */\n              0x00\n                /* \"#utility.yul\":6312:6327   */\n              revert\n                /* \"#utility.yul\":6339:6659   */\n            tag_20:\n                /* \"#utility.yul\":6383:6389   */\n              0x00\n                /* \"#utility.yul\":6420:6421   */\n              0x02\n                /* \"#utility.yul\":6414:6418   */\n              dup3\n                /* \"#utility.yul\":6410:6422   */\n              div\n                /* \"#utility.yul\":6400:6422   */\n              swap1\n              pop\n                /* \"#utility.yul\":6467:6468   */\n              0x01\n                /* \"#utility.yul\":6461:6465   */\n              dup3\n                /* \"#utility.yul\":6457:6469   */\n              and\n                /* \"#utility.yul\":6488:6506   */\n              dup1\n                /* \"#utility.yul\":6478:6559   */\n              tag_152\n              jumpi\n                /* \"#utility.yul\":6544:6548   */\n              0x7f\n                /* \"#utility.yul\":6536:6542   */\n              dup3\n                /* \"#utility.yul\":6532:6549   */\n              and\n                /* \"#utility.yul\":6522:6549   */\n              swap2\n              pop\n                /* \"#utility.yul\":6478:6559   */\n            tag_152:\n                /* \"#utility.yul\":6606:6608   */\n              0x20\n                /* \"#utility.yul\":6598:6604   */\n              dup3\n                /* \"#utility.yul\":6595:6609   */\n              lt\n                /* \"#utility.yul\":6575:6593   */\n              dup2\n                /* \"#utility.yul\":6572:6610   */\n              sub\n                /* \"#utility.yul\":6569:6653   */\n              tag_153\n              jumpi\n                /* \"#utility.yul\":6625:6643   */\n              tag_154\n              tag_62\n              jump\t// in\n            tag_154:\n                /* \"#utility.yul\":6569:6653   */\n            tag_153:\n                /* \"#utility.yul\":6390:6659   */\n              pop\n                /* \"#utility.yul\":6339:6659   */\n              swap2\n              swap1\n              pop\n              jump\t// out\n                /* \"#utility.yul\":6665:6806   */\n            tag_63:\n                /* \"#utility.yul\":6714:6718   */\n              0x00\n                /* \"#utility.yul\":6737:6740   */\n              dup2\n                /* \"#utility.yul\":6729:6740   */\n              swap1\n              pop\n                /* \"#utility.yul\":6760:6763   */\n              dup2\n                /* \"#utility.yul\":6757:6758   */\n              0x00\n                /* \"#utility.yul\":6750:6764   */\n              mstore\n                /* \"#utility.yul\":6794:6798   */\n              0x20\n                /* \"#utility.yul\":6791:6792   */\n              0x00\n                /* \"#utility.yul\":6781:6799   */\n              keccak256\n                /* \"#utility.yul\":6773:6799   */\n              swap1\n              pop\n                /* \"#utility.yul\":6665:6806   */\n              swap2\n              swap1\n              pop\n              jump\t// out\n                /* \"#utility.yul\":6812:6905   */\n            tag_64:\n                /* \"#utility.yul\":6849:6855   */\n              0x00\n                /* \"#utility.yul\":6896:6898   */\n              0x20\n                /* \"#utility.yul\":6891:6893   */\n              0x1f\n                /* \"#utility.yul\":6884:6889   */\n              dup4\n                /* \"#utility.yul\":6880:6894   */\n              add\n                /* \"#utility.yul\":6876:6899   */\n              div\n                /* \"#utility.yul\":6866:6899   */\n              swap1\n              pop\n                /* \"#utility.yul\":6812:6905   */\n              swap2\n              swap1\n              pop\n              jump\t// out\n                /* \"#utility.yul\":6911:7018   */\n            tag_65:\n                /* \"#utility.yul\":6955:6963   */\n              0x00\n                /* \"#utility.yul\":7005:7010   */\n              dup3\n                /* \"#utility.yul\":6999:7003   */\n              dup3\n                /* \"#utility.yul\":6995:7011   */\n              shl\n                /* \"#utility.yul\":6974:7011   */\n              swap1\n              pop\n                /* \"#utility.yul\":6911:7018   */\n              swap3\n              swap2\n              pop\n              pop\n              jump\t// out\n                /* \"#utility.yul\":7024:7417   */\n            tag_66:\n                /* \"#utility.yul\":7093:7099   */\n              0x00\n                /* \"#utility.yul\":7143:7144   */\n              0x08\n                /* \"#utility.yul\":7131:7141   */\n              dup4\n                /* \"#utility.yul\":7127:7145   */\n              mul\n                /* \"#utility.yul\":7166:7263   */\n              tag_159\n                /* \"#utility.yul\":7196:7262   */\n              0xffffffffffffffffffffffffffffffffffffffffffffffffffffffffffffffff\n                /* \"#utility.yul\":7185:7194   */\n              dup3\n                /* \"#utility.yul\":7166:7263   */\n              tag_65\n              jump\t// in\n            tag_159:\n                /* \"#utility.yul\":7284:7323   */\n              tag_160\n                /* \"#utility.yul\":7314:7322   */\n              dup7\n                /* \"#utility.yul\":7303:7312   */\n              dup4\n                /* \"#utility.yul\":7284:7323   */\n              tag_65\n              jump\t// in\n            tag_160:\n                /* \"#utility.yul\":7272:7323   */\n              swap6\n              pop\n                /* \"#utility.yul\":7356:7360   */\n              dup1\n                /* \"#utility.yul\":7352:7361   */\n              not\n                /* \"#utility.yul\":7345:7350   */\n              dup5\n                /* \"#utility.yul\":7341:7362   */\n              and\n                /* \"#utility.yul\":7332:7362   */\n              swap4\n              pop\n                /* \"#utility.yul\":7405:7409   */\n              dup1\n                /* \"#utility.yul\":7395:7403   */\n              dup7\n                /* \"#utility.yul\":7391:7410   */\n              and\n                /* \"#utility.yul\":7384:7389   */\n              dup5\n                /* \"#utility.yul\":7381:7411   */\n              or\n                /* \"#utility.yul\":7371:7411   */\n              swap3\n              pop\n                /* \"#utility.yul\":7100:7417   */\n              pop\n              pop\n                /* \"#utility.yul\":7024:7417   */\n              swap4\n              swap3\n              pop\n              pop\n              pop\n              jump\t// out\n                /* \"#utility.yul\":7423:7483   */\n            tag_67:\n                /* \"#utility.yul\":7451:7454   */\n              0x00\n                /* \"#utility.yul\":7472:7477   */\n              dup2\n                /* \"#utility.yul\":7465:7477   */\n              swap1\n              pop\n                /* \"#utility.yul\":7423:7483   */\n              swap2\n              swap1\n              pop\n              jump\t// out\n                /* \"#utility.yul\":7489:7631   */\n            tag_68:\n                /* \"#utility.yul\":7539:7548   */\n              0x00\n                /* \"#utility.yul\":7572:7625   */\n              tag_163\n                /* \"#utility.yul\":7590:7624   */\n              tag_164\n                /* \"#utility.yul\":7599:7623   */\n              tag_165\n                /* \"#utility.yul\":7617:7622   */\n              dup5\n                /* \"#utility.yul\":7599:7623   */\n              tag_36\n              jump\t// in\n            tag_165:\n                /* \"#utility.yul\":7590:7624   */\n              tag_67\n              jump\t// in\n            tag_164:\n                /* \"#utility.yul\":7572:7625   */\n              tag_36\n              jump\t// in\n            tag_163:\n                /* \"#utility.yul\":7559:7625   */\n              swap1\n              pop\n                /* \"#utility.yul\":7489:7631   */\n              swap2\n              swap1\n              pop\n              jump\t// out\n                /* \"#utility.yul\":7637:7712   */\n            tag_69:\n                /* \"#utility.yul\":7680:7683   */\n              0x00\n                /* \"#utility.yul\":7701:7706   */\n              dup2\n                /* \"#utility.yul\":7694:7706   */\n              swap1\n              pop\n                /* \"#utility.yul\":7637:7712   */\n              swap2\n              swap1\n              pop\n              jump\t// out\n                /* \"#utility.yul\":7718:7987   */\n            tag_70:\n                /* \"#utility.yul\":7828:7867   */\n              tag_168\n                /* \"#utility.yul\":7859:7866   */\n              dup4\n                /* \"#utility.yul\":7828:7867   */\n              tag_68\n              jump\t// in\n            tag_168:\n                /* \"#utility.yul\":7889:7980   */\n              tag_169\n                /* \"#utility.yul\":7938:7979   */\n              tag_170\n                /* \"#utility.yul\":7962:7978   */\n              dup3\n                /* \"#utility.yul\":7938:7979   */\n              tag_69\n              jump\t// in\n            tag_170:\n                /* \"#utility.yul\":7930:7936   */\n              dup5\n                /* \"#utility.yul\":7923:7927   */\n              dup5\n                /* \"#utility.yul\":7917:7928   */\n              sload\n                /* \"#utility.yul\":7889:7980   */\n              tag_66\n              jump\t// in\n            tag_169:\n                /* \"#utility.yul\":7883:7887   */\n              dup3\n                /* \"#utility.yul\":7876:7981   */\n              sstore\n                /* \"#utility.yul\":7794:7987   */\n              pop\n                /* \"#utility.yul\":7718:7987   */\n              pop\n              pop\n              pop\n              jump\t// out\n                /* \"#utility.yul\":7993:8066   */\n            tag_71:\n                /* \"#utility.yul\":8038:8041   */\n              0x00\n                /* \"#utility.yul\":8059:8060   */\n              0x00\n                /* \"#utility.yul\":8052:8060   */\n              swap1\n              pop\n                /* \"#utility.yul\":7993:8066   */\n              swap1\n              jump\t// out\n                /* \"#utility.yul\":8072:8261   */\n            tag_72:\n                /* \"#utility.yul\":8149:8181   */\n              tag_173\n              tag_71\n              jump\t// in\n            tag_173:\n                /* \"#utility.yul\":8190:8255   */\n              tag_174\n                /* \"#utility.yul\":8248:8254   */\n              dup2\n                /* \"#utility.yul\":8240:8246   */\n              dup5\n                /* \"#utility.yul\":8234:8238   */\n              dup5\n                /* \"#utility.yul\":8190:8255   */\n              tag_70\n              jump\t// in\n            tag_174:\n                /* \"#utility.yul\":8125:8261   */\n              pop\n                /* \"#utility.yul\":8072:8261   */\n              pop\n              pop\n              jump\t// out\n                /* \"#utility.yul\":8267:8453   */\n            tag_73:\n                /* \"#utility.yul\":8327:8447   */\n            tag_176:\n                /* \"#utility.yul\":8344:8347   */\n              dup2\n                /* \"#utility.yul\":8337:8342   */\n              dup2\n                /* \"#utility.yul\":8334:8348   */\n              lt\n                /* \"#utility.yul\":8327:8447   */\n              iszero\n              tag_178\n              jumpi\n                /* \"#utility.yul\":8398:8437   */\n              tag_179\n                /* \"#utility.yul\":8435:8436   */\n              0x00\n                /* \"#utility.yul\":8428:8433   */\n              dup3\n                /* \"#utility.yul\":8398:8437   */\n              tag_72\n              jump\t// in\n            tag_179:\n                /* \"#utility.yul\":8371:8372   */\n              0x01\n                /* \"#utility.yul\":8364:8369   */\n              dup2\n                /* \"#utility.yul\":8360:8373   */\n              add\n                /* \"#utility.yul\":8351:8373   */\n              swap1\n              pop\n                /* \"#utility.yul\":8327:8447   */\n              jump(tag_176)\n            tag_178:\n                /* \"#utility.yul\":8267:8453   */\n              pop\n              pop\n              jump\t// out\n                /* \"#utility.yul\":8459:9002   */\n            tag_74:\n                /* \"#utility.yul\":8560:8562   */\n              0x1f\n                /* \"#utility.yul\":8555:8558   */\n              dup3\n                /* \"#utility.yul\":8552:8563   */\n              gt\n                /* \"#utility.yul\":8549:8995   */\n              iszero\n              tag_181\n              jumpi\n                /* \"#utility.yul\":8594:8632   */\n              tag_182\n                /* \"#utility.yul\":8626:8631   */\n              dup2\n                /* \"#utility.yul\":8594:8632   */\n              tag_63\n              jump\t// in\n            tag_182:\n                /* \"#utility.yul\":8678:8707   */\n              tag_183\n                /* \"#utility.yul\":8696:8706   */\n              dup5\n                /* \"#utility.yul\":8678:8707   */\n              tag_64\n              jump\t// in\n            tag_183:\n                /* \"#utility.yul\":8668:8676   */\n              dup2\n                /* \"#utility.yul\":8664:8708   */\n              add\n                /* \"#utility.yul\":8861:8863   */\n              0x20\n                /* \"#utility.yul\":8849:8859   */\n              dup6\n                /* \"#utility.yul\":8846:8864   */\n              lt\n                /* \"#utility.yul\":8843:8892   */\n              iszero\n              tag_184\n              jumpi\n                /* \"#utility.yul\":8882:8890   */\n              dup2\n                /* \"#utility.yul\":8867:8890   */\n              swap1\n              pop\n                /* \"#utility.yul\":8843:8892   */\n            tag_184:\n                /* \"#utility.yul\":8905:8985   */\n              tag_185\n                /* \"#utility.yul\":8961:8983   */\n              tag_186\n                /* \"#utility.yul\":8979:8982   */\n              dup6\n                /* \"#utility.yul\":8961:8983   */\n              tag_64\n              jump\t// in\n            tag_186:\n                /* \"#utility.yul\":8951:8959   */\n              dup4\n                /* \"#utility.yul\":8947:8984   */\n              add\n                /* \"#utility.yul\":8934:8945   */\n              dup3\n                /* \"#utility.yul\":8905:8985   */\n              tag_73\n              jump\t// in\n            tag_185:\n                /* \"#utility.yul\":8564:8995   */\n              pop\n              pop\n                /* \"#utility.yul\":8549:8995   */\n            tag_181:\n                /* \"#utility.yul\":8459:9002   */\n              pop\n              pop\n              pop\n              jump\t// out\n                /* \"#utility.yul\":9008:9125   */\n            tag_75:\n                /* \"#utility.yul\":9062:9070   */\n              0x00\n                /* \"#utility.yul\":9112:9117   */\n              dup3\n                /* \"#utility.yul\":9106:9110   */\n              dup3\n                /* \"#utility.yul\":9102:9118   */\n              shr\n                /* \"#utility.yul\":9081:9118   */\n              swap1\n              pop\n                /* \"#utility.yul\":9008:9125   */\n              swap3\n              swap2\n              pop\n              pop\n              jump\t// out\n                /* \"#utility.yul\":9131:9300   */\n            tag_76:\n                /* \"#utility.yul\":9175:9181   */\n              0x00\n                /* \"#utility.yul\":9208:9259   */\n              tag_189\n                /* \"#utility.yul\":9256:9257   */\n              0x00\n                /* \"#utility.yul\":9252:9258   */\n              not\n                /* \"#utility.yul\":9244:9249   */\n              dup5\n                /* \"#utility.yul\":9241:9242   */\n              0x08\n                /* \"#utility.yul\":9237:9250   */\n              mul\n                /* \"#utility.yul\":9208:9259   */\n              tag_75\n              jump\t// in\n            tag_189:\n                /* \"#utility.yul\":9204:9260   */\n              not\n                /* \"#utility.yul\":9289:9293   */\n              dup1\n                /* \"#utility.yul\":9283:9287   */\n              dup4\n                /* \"#utility.yul\":9279:9294   */\n              and\n                /* \"#utility.yul\":9269:9294   */\n              swap2\n              pop\n                /* \"#utility.yul\":9182:9300   */\n              pop\n                /* \"#utility.yul\":9131:9300   */\n              swap3\n              swap2\n              pop\n              pop\n              jump\t// out\n                /* \"#utility.yul\":9305:9600   */\n            tag_77:\n                /* \"#utility.yul\":9381:9385   */\n              0x00\n                /* \"#utility.yul\":9527:9556   */\n              tag_191\n                /* \"#utility.yul\":9552:9555   */\n              dup4\n                /* \"#utility.yul\":9546:9550   */\n              dup4\n                /* \"#utility.yul\":9527:9556   */\n              tag_76\n              jump\t// in\n            tag_191:\n                /* \"#utility.yul\":9519:9556   */\n              swap2\n              pop\n                /* \"#utility.yul\":9589:9592   */\n              dup3\n                /* \"#utility.yul\":9586:9587   */\n              0x02\n                /* \"#utility.yul\":9582:9593   */\n              mul\n                /* \"#utility.yul\":9576:9580   */\n              dup3\n                /* \"#utility.yul\":9573:9594   */\n              or\n                /* \"#utility.yul\":9565:9594   */\n              swap1\n              pop\n                /* \"#utility.yul\":9305:9600   */\n              swap3\n              swap2\n              pop\n              pop\n              jump\t// out\n                /* \"#utility.yul\":9605:11000   */\n            tag_28:\n                /* \"#utility.yul\":9722:9759   */\n              tag_193\n                /* \"#utility.yul\":9755:9758   */\n              dup3\n                /* \"#utility.yul\":9722:9759   */\n              tag_41\n              jump\t// in\n            tag_193:\n                /* \"#utility.yul\":9824:9842   */\n              0xffffffffffffffff\n                /* \"#utility.yul\":9816:9822   */\n              dup2\n                /* \"#utility.yul\":9813:9843   */\n              gt\n                /* \"#utility.yul\":9810:9866   */\n              iszero\n              tag_194\n              jumpi\n                /* \"#utility.yul\":9846:9864   */\n              tag_195\n              tag_55\n              jump\t// in\n            tag_195:\n                /* \"#utility.yul\":9810:9866   */\n            tag_194:\n                /* \"#utility.yul\":9890:9928   */\n              tag_196\n                /* \"#utility.yul\":9922:9926   */\n              dup3\n                /* \"#utility.yul\":9916:9927   */\n              sload\n                /* \"#utility.yul\":9890:9928   */\n              tag_20\n              jump\t// in\n            tag_196:\n                /* \"#utility.yul\":9975:10042   */\n              tag_197\n                /* \"#utility.yul\":10035:10041   */\n              dup3\n                /* \"#utility.yul\":10027:10033   */\n              dup3\n                /* \"#utility.yul\":10021:10025   */\n              dup6\n                /* \"#utility.yul\":9975:10042   */\n              tag_74\n              jump\t// in\n            tag_197:\n                /* \"#utility.yul\":10069:10070   */\n              0x00\n                /* \"#utility.yul\":10093:10097   */\n              0x20\n                /* \"#utility.yul\":10080:10097   */\n              swap1\n              pop\n                /* \"#utility.yul\":10125:10127   */\n              0x1f\n                /* \"#utility.yul\":10117:10123   */\n              dup4\n                /* \"#utility.yul\":10114:10128   */\n              gt\n                /* \"#utility.yul\":10142:10143   */\n              0x01\n                /* \"#utility.yul\":10137:10755   */\n              dup2\n              eq\n              tag_199\n              jumpi\n                /* \"#utility.yul\":10799:10800   */\n              0x00\n                /* \"#utility.yul\":10816:10822   */\n              dup5\n                /* \"#utility.yul\":10813:10890   */\n              iszero\n              tag_200\n              jumpi\n                /* \"#utility.yul\":10865:10874   */\n              dup3\n                /* \"#utility.yul\":10860:10863   */\n              dup8\n                /* \"#utility.yul\":10856:10875   */\n              add\n                /* \"#utility.yul\":10850:10876   */\n              mload\n                /* \"#utility.yul\":10841:10876   */\n              swap1\n              pop\n                /* \"#utility.yul\":10813:10890   */\n            tag_200:\n                /* \"#utility.yul\":10916:10983   */\n              tag_201\n                /* \"#utility.yul\":10976:10982   */\n              dup6\n                /* \"#utility.yul\":10969:10974   */\n              dup3\n                /* \"#utility.yul\":10916:10983   */\n              tag_77\n              jump\t// in\n            tag_201:\n                /* \"#utility.yul\":10910:10914   */\n              dup7\n                /* \"#utility.yul\":10903:10984   */\n              sstore\n                /* \"#utility.yul\":10772:10994   */\n              pop\n                /* \"#utility.yul\":10107:10994   */\n              jump(tag_198)\n                /* \"#utility.yul\":10137:10755   */\n            tag_199:\n                /* \"#utility.yul\":10189:10193   */\n              0x1f\n                /* \"#utility.yul\":10185:10194   */\n              not\n                /* \"#utility.yul\":10177:10183   */\n              dup5\n                /* \"#utility.yul\":10173:10195   */\n              and\n                /* \"#utility.yul\":10223:10260   */\n              tag_202\n                /* \"#utility.yul\":10255:10259   */\n              dup7\n                /* \"#utility.yul\":10223:10260   */\n              tag_63\n              jump\t// in\n            tag_202:\n                /* \"#utility.yul\":10282:10283   */\n              0x00\n                /* \"#utility.yul\":10296:10504   */\n            tag_203:\n                /* \"#utility.yul\":10310:10317   */\n              dup3\n                /* \"#utility.yul\":10307:10308   */\n              dup2\n                /* \"#utility.yul\":10304:10318   */\n              lt\n                /* \"#utility.yul\":10296:10504   */\n              iszero\n              tag_205\n              jumpi\n                /* \"#utility.yul\":10389:10398   */\n              dup5\n                /* \"#utility.yul\":10384:10387   */\n              dup10\n                /* \"#utility.yul\":10380:10399   */\n              add\n                /* \"#utility.yul\":10374:10400   */\n              mload\n                /* \"#utility.yul\":10366:10372   */\n              dup3\n                /* \"#utility.yul\":10359:10401   */\n              sstore\n                /* \"#utility.yul\":10440:10441   */\n              0x01\n                /* \"#utility.yul\":10432:10438   */\n              dup3\n                /* \"#utility.yul\":10428:10442   */\n              add\n                /* \"#utility.yul\":10418:10442   */\n              swap2\n              pop\n                /* \"#utility.yul\":10487:10489   */\n              0x20\n                /* \"#utility.yul\":10476:10485   */\n              dup6\n                /* \"#utility.yul\":10472:10490   */\n              add\n                /* \"#utility.yul\":10459:10490   */\n              swap5\n              pop\n                /* \"#utility.yul\":10333:10337   */\n              0x20\n                /* \"#utility.yul\":10330:10331   */\n              dup2\n                /* \"#utility.yul\":10326:10338   */\n              add\n                /* \"#utility.yul\":10321:10338   */\n              swap1\n              pop\n                /* \"#utility.yul\":10296:10504   */\n              jump(tag_203)\n            tag_205:\n                /* \"#utility.yul\":10532:10538   */\n              dup7\n                /* \"#utility.yul\":10523:10530   */\n              dup4\n                /* \"#utility.yul\":10520:10539   */\n              lt\n                /* \"#utility.yul\":10517:10696   */\n              iszero\n              tag_206\n              jumpi\n                /* \"#utility.yul\":10590:10599   */\n              dup5\n                /* \"#utility.yul\":10585:10588   */\n              dup10\n                /* \"#utility.yul\":10581:10600   */\n              add\n                /* \"#utility.yul\":10575:10601   */\n              mload\n                /* \"#utility.yul\":10633:10681   */\n              tag_207\n                /* \"#utility.yul\":10675:10679   */\n              0x1f\n                /* \"#utility.yul\":10667:10673   */\n              dup10\n                /* \"#utility.yul\":10663:10680   */\n              and\n                /* \"#utility.yul\":10652:10661   */\n              dup3\n                /* \"#utility.yul\":10633:10681   */\n              tag_76\n              jump\t// in\n            tag_207:\n                /* \"#utility.yul\":10625:10631   */\n              dup4\n                /* \"#utility.yul\":10618:10682   */\n              sstore\n                /* \"#utility.yul\":10540:10696   */\n              pop\n                /* \"#utility.yul\":10517:10696   */\n            tag_206:\n                /* \"#utility.yul\":10742:10743   */\n              0x01\n                /* \"#utility.yul\":10738:10739   */\n              0x02\n                /* \"#utility.yul\":10730:10736   */\n              dup9\n                /* \"#utility.yul\":10726:10740   */\n              mul\n                /* \"#utility.yul\":10722:10744   */\n              add\n                /* \"#utility.yul\":10716:10720   */\n              dup9\n                /* \"#utility.yul\":10709:10745   */\n              sstore\n                /* \"#utility.yul\":10144:10755   */\n              pop\n              pop\n              pop\n                /* \"#utility.yul\":10107:10994   */\n            tag_198:\n              pop\n                /* \"#utility.yul\":9697:11000   */\n              pop\n              pop\n              pop\n                /* \"#utility.yul\":9605:11000   */\n              pop\n              pop\n              jump\t// out\n\n            auxdata: 0xa2646970667358221220446bdfcec35bf21f8efcd8b4ec2cb02672ea8b69714f68047fb2dd905d1814c664736f6c634300081f0033\n        }\n    }\n\n    auxdata: 0xa264697066735822122086501403f012de2fd0a77923760ada1e800b0659f72d68313ec63504ffcf5d3f64736f6c634300081f0033\n}\n",
				"bytecode": {
					"linkReferences": {},
					"object": "6080604052348015600e575f5ffd5b50610fb68061001c5f395ff3fe608060405234801561000f575f5ffd5b5060043610610034575f3560e01c80631dda6541146100385780637c6e24a714610042575b5f5ffd5b610040610072565b005b61005c6004803603810190610057919061017b565b6100fd565b6040516100699190610220565b60405180910390f35b5f60405161007f90610137565b604051809103905ff080158015610098573d5f5f3e3d5ffd5b5090505f81908060018154018082558091505060019003905f5260205f20015f9091909190916101000a81548173ffffffffffffffffffffffffffffffffffffffff021916908373ffffffffffffffffffffffffffffffffffffffff16021790555050565b5f818154811061010b575f80fd5b905f5260205f20015f915054906101000a900473ffffffffffffffffffffffffffffffffffffffff1681565b610d478061023a83390190565b5f5ffd5b5f819050919050565b61015a81610148565b8114610164575f5ffd5b50565b5f8135905061017581610151565b92915050565b5f602082840312156101905761018f610144565b5b5f61019d84828501610167565b91505092915050565b5f73ffffffffffffffffffffffffffffffffffffffff82169050919050565b5f819050919050565b5f6101e86101e36101de846101a6565b6101c5565b6101a6565b9050919050565b5f6101f9826101ce565b9050919050565b5f61020a826101ef565b9050919050565b61021a81610200565b82525050565b5f6020820190506102335f830184610211565b9291505056fe608060405260405180606001604052806019815260200173606c71ad246dfd42497c1f5a8b91de1de13bfffe73ffffffffffffffffffffffffffffffffffffffff1681526020016040518060400160405280600981526020017f446565706d616c796100000000000000000000000000000000000000000000008152508152505f5f820151815f01556020820151816001015f6101000a81548173ffffffffffffffffffffffffffffffffffffffff021916908373ffffffffffffffffffffffffffffffffffffffff16021790555060408201518160020190816100e39190610334565b5050503480156100f1575f5ffd5b50610403565b5f81519050919050565b7f4e487b71000000000000000000000000000000000000000000000000000000005f52604160045260245ffd5b7f4e487b71000000000000000000000000000000000000000000000000000000005f52602260045260245ffd5b5f600282049050600182168061017257607f821691505b6020821081036101855761018461012e565b5b50919050565b5f819050815f5260205f209050919050565b5f6020601f8301049050919050565b5f82821b905092915050565b5f600883026101e77fffffffffffffffffffffffffffffffffffffffffffffffffffffffffffffffff826101ac565b6101f186836101ac565b95508019841693508086168417925050509392505050565b5f819050919050565b5f819050919050565b5f61023561023061022b84610209565b610212565b610209565b9050919050565b5f819050919050565b61024e8361021b565b61026261025a8261023c565b8484546101b8565b825550505050565b5f5f905090565b61027961026a565b610284818484610245565b505050565b5b818110156102a75761029c5f82610271565b60018101905061028a565b5050565b601f8211156102ec576102bd8161018b565b6102c68461019d565b810160208510156102d5578190505b6102e96102e18561019d565b830182610289565b50505b505050565b5f82821c905092915050565b5f61030c5f19846008026102f1565b1980831691505092915050565b5f61032483836102fd565b9150826002028217905092915050565b61033d826100f7565b67ffffffffffffffff81111561035657610355610101565b5b610360825461015b565b61036b8282856102ab565b5f60209050601f83116001811461039c575f841561038a578287015190505b6103948582610319565b8655506103fb565b601f1984166103aa8661018b565b5f5b828110156103d1578489015182556001820191506020850194506020810190506103ac565b868310156103ee57848901516103ea601f8916826102fd565b8355505b6001600288020188555050505b505050505050565b610937806104105f395ff3fe608060405234801561000f575f5ffd5b506004361061003f575f3560e01c80630ee28e37146100435780635319a9be146100635780639e7a13ad1461007f575b5f5ffd5b61004b6100b1565b60405161005a939291906103d1565b60405180910390f35b61007d6004803603810190610078919061059e565b61016c565b005b6100996004803603810190610094919061060a565b610230565b6040516100a8939291906103d1565b60405180910390f35b5f805f015490806001015f9054906101000a900473ffffffffffffffffffffffffffffffffffffffff16908060020180546100eb90610662565b80601f016020809104026020016040519081016040528092919081815260200182805461011790610662565b80156101625780601f1061013957610100808354040283529160200191610162565b820191905f5260205f20905b81548152906001019060200180831161014557829003601f168201915b5050505050905083565b600360405180606001604052808581526020018473ffffffffffffffffffffffffffffffffffffffff16815260200183815250908060018154018082558091505060019003905f5260205f2090600302015f909190919091505f820151815f01556020820151816001015f6101000a81548173ffffffffffffffffffffffffffffffffffffffff021916908373ffffffffffffffffffffffffffffffffffffffff16021790555060408201518160020190816102289190610832565b505050505050565b6003818154811061023f575f80fd5b905f5260205f2090600302015f91509050805f015490806001015f9054906101000a900473ffffffffffffffffffffffffffffffffffffffff169080600201805461028990610662565b80601f01602080910402602001604051908101604052809291908181526020018280546102b590610662565b80156103005780601f106102d757610100808354040283529160200191610300565b820191905f5260205f20905b8154815290600101906020018083116102e357829003601f168201915b5050505050905083565b5f819050919050565b61031c8161030a565b82525050565b5f73ffffffffffffffffffffffffffffffffffffffff82169050919050565b5f61034b82610322565b9050919050565b61035b81610341565b82525050565b5f81519050919050565b5f82825260208201905092915050565b8281835e5f83830152505050565b5f601f19601f8301169050919050565b5f6103a382610361565b6103ad818561036b565b93506103bd81856020860161037b565b6103c681610389565b840191505092915050565b5f6060820190506103e45f830186610313565b6103f16020830185610352565b81810360408301526104038184610399565b9050949350505050565b5f604051905090565b5f5ffd5b5f5ffd5b6104278161030a565b8114610431575f5ffd5b50565b5f813590506104428161041e565b92915050565b61045181610341565b811461045b575f5ffd5b50565b5f8135905061046c81610448565b92915050565b5f5ffd5b5f5ffd5b7f4e487b71000000000000000000000000000000000000000000000000000000005f52604160045260245ffd5b6104b082610389565b810181811067ffffffffffffffff821117156104cf576104ce61047a565b5b80604052505050565b5f6104e161040d565b90506104ed82826104a7565b919050565b5f67ffffffffffffffff82111561050c5761050b61047a565b5b61051582610389565b9050602081019050919050565b828183375f83830152505050565b5f61054261053d846104f2565b6104d8565b90508281526020810184848401111561055e5761055d610476565b5b610569848285610522565b509392505050565b5f82601f83011261058557610584610472565b5b8135610595848260208601610530565b91505092915050565b5f5f5f606084860312156105b5576105b4610416565b5b5f6105c286828701610434565b93505060206105d38682870161045e565b925050604084013567ffffffffffffffff8111156105f4576105f361041a565b5b61060086828701610571565b9150509250925092565b5f6020828403121561061f5761061e610416565b5b5f61062c84828501610434565b91505092915050565b7f4e487b71000000000000000000000000000000000000000000000000000000005f52602260045260245ffd5b5f600282049050600182168061067957607f821691505b60208210810361068c5761068b610635565b5b50919050565b5f819050815f5260205f209050919050565b5f6020601f8301049050919050565b5f82821b905092915050565b5f600883026106ee7fffffffffffffffffffffffffffffffffffffffffffffffffffffffffffffffff826106b3565b6106f886836106b3565b95508019841693508086168417925050509392505050565b5f819050919050565b5f61073361072e6107298461030a565b610710565b61030a565b9050919050565b5f819050919050565b61074c83610719565b6107606107588261073a565b8484546106bf565b825550505050565b5f5f905090565b610777610768565b610782818484610743565b505050565b5b818110156107a55761079a5f8261076f565b600181019050610788565b5050565b601f8211156107ea576107bb81610692565b6107c4846106a4565b810160208510156107d3578190505b6107e76107df856106a4565b830182610787565b50505b505050565b5f82821c905092915050565b5f61080a5f19846008026107ef565b1980831691505092915050565b5f61082283836107fb565b9150826002028217905092915050565b61083b82610361565b67ffffffffffffffff8111156108545761085361047a565b5b61085e8254610662565b6108698282856107a9565b5f60209050601f83116001811461089a575f8415610888578287015190505b6108928582610817565b8655506108f9565b601f1984166108a886610692565b5f5b828110156108cf578489015182556001820191506020850194506020810190506108aa565b868310156108ec57848901516108e8601f8916826107fb565b8355505b6001600288020188555050505b50505050505056fea2646970667358221220446bdfcec35bf21f8efcd8b4ec2cb02672ea8b69714f68047fb2dd905d1814c664736f6c634300081f0033a264697066735822122086501403f012de2fd0a77923760ada1e800b0659f72d68313ec63504ffcf5d3f64736f6c634300081f0033",
					"opcodes": "PUSH1 0x80 PUSH1 0x40 MSTORE CALLVALUE DUP1 ISZERO PUSH1 0xE JUMPI PUSH0 PUSH0 REVERT JUMPDEST POP PUSH2 0xFB6 DUP1 PUSH2 0x1C PUSH0 CODECOPY PUSH0 RETURN INVALID PUSH1 0x80 PUSH1 0x40 MSTORE CALLVALUE DUP1 ISZERO PUSH2 0xF JUMPI PUSH0 PUSH0 REVERT JUMPDEST POP PUSH1 0x4 CALLDATASIZE LT PUSH2 0x34 JUMPI PUSH0 CALLDATALOAD PUSH1 0xE0 SHR DUP1 PUSH4 0x1DDA6541 EQ PUSH2 0x38 JUMPI DUP1 PUSH4 0x7C6E24A7 EQ PUSH2 0x42 JUMPI JUMPDEST PUSH0 PUSH0 REVERT JUMPDEST PUSH2 0x40 PUSH2 0x72 JUMP JUMPDEST STOP JUMPDEST PUSH2 0x5C PUSH1 0x4 DUP1 CALLDATASIZE SUB DUP2 ADD SWAP1 PUSH2 0x57 SWAP2 SWAP1 PUSH2 0x17B JUMP JUMPDEST PUSH2 0xFD JUMP JUMPDEST PUSH1 0x40 MLOAD PUSH2 0x69 SWAP2 SWAP1 PUSH2 0x220 JUMP JUMPDEST PUSH1 0x40 MLOAD DUP1 SWAP2 SUB SWAP1 RETURN JUMPDEST PUSH0 PUSH1 0x40 MLOAD PUSH2 0x7F SWAP1 PUSH2 0x137 JUMP JUMPDEST PUSH1 0x40 MLOAD DUP1 SWAP2 SUB SWAP1 PUSH0 CREATE DUP1 ISZERO DUP1 ISZERO PUSH2 0x98 JUMPI RETURNDATASIZE PUSH0 PUSH0 RETURNDATACOPY RETURNDATASIZE PUSH0 REVERT JUMPDEST POP SWAP1 POP PUSH0 DUP2 SWAP1 DUP1 PUSH1 0x1 DUP2 SLOAD ADD DUP1 DUP3 SSTORE DUP1 SWAP2 POP POP PUSH1 0x1 SWAP1 SUB SWAP1 PUSH0 MSTORE PUSH1 0x20 PUSH0 KECCAK256 ADD PUSH0 SWAP1 SWAP2 SWAP1 SWAP2 SWAP1 SWAP2 PUSH2 0x100 EXP DUP2 SLOAD DUP2 PUSH20 0xFFFFFFFFFFFFFFFFFFFFFFFFFFFFFFFFFFFFFFFF MUL NOT AND SWAP1 DUP4 PUSH20 0xFFFFFFFFFFFFFFFFFFFFFFFFFFFFFFFFFFFFFFFF AND MUL OR SWAP1 SSTORE POP POP JUMP JUMPDEST PUSH0 DUP2 DUP2 SLOAD DUP2 LT PUSH2 0x10B JUMPI PUSH0 DUP1 REVERT JUMPDEST SWAP1 PUSH0 MSTORE PUSH1 0x20 PUSH0 KECCAK256 ADD PUSH0 SWAP2 POP SLOAD SWAP1 PUSH2 0x100 EXP SWAP1 DIV PUSH20 0xFFFFFFFFFFFFFFFFFFFFFFFFFFFFFFFFFFFFFFFF AND DUP2 JUMP JUMPDEST PUSH2 0xD47 DUP1 PUSH2 0x23A DUP4 CODECOPY ADD SWAP1 JUMP JUMPDEST PUSH0 PUSH0 REVERT JUMPDEST PUSH0 DUP2 SWAP1 POP SWAP2 SWAP1 POP JUMP JUMPDEST PUSH2 0x15A DUP2 PUSH2 0x148 JUMP JUMPDEST DUP2 EQ PUSH2 0x164 JUMPI PUSH0 PUSH0 REVERT JUMPDEST POP JUMP JUMPDEST PUSH0 DUP2 CALLDATALOAD SWAP1 POP PUSH2 0x175 DUP2 PUSH2 0x151 JUMP JUMPDEST SWAP3 SWAP2 POP POP JUMP JUMPDEST PUSH0 PUSH1 0x20 DUP3 DUP5 SUB SLT ISZERO PUSH2 0x190 JUMPI PUSH2 0x18F PUSH2 0x144 JUMP JUMPDEST JUMPDEST PUSH0 PUSH2 0x19D DUP5 DUP3 DUP6 ADD PUSH2 0x167 JUMP JUMPDEST SWAP2 POP POP SWAP3 SWAP2 POP POP JUMP JUMPDEST PUSH0 PUSH20 0xFFFFFFFFFFFFFFFFFFFFFFFFFFFFFFFFFFFFFFFF DUP3 AND SWAP1 POP SWAP2 SWAP1 POP JUMP JUMPDEST PUSH0 DUP2 SWAP1 POP SWAP2 SWAP1 POP JUMP JUMPDEST PUSH0 PUSH2 0x1E8 PUSH2 0x1E3 PUSH2 0x1DE DUP5 PUSH2 0x1A6 JUMP JUMPDEST PUSH2 0x1C5 JUMP JUMPDEST PUSH2 0x1A6 JUMP JUMPDEST SWAP1 POP SWAP2 SWAP1 POP JUMP JUMPDEST PUSH0 PUSH2 0x1F9 DUP3 PUSH2 0x1CE JUMP JUMPDEST SWAP1 POP SWAP2 SWAP1 POP JUMP JUMPDEST PUSH0 PUSH2 0x20A DUP3 PUSH2 0x1EF JUMP JUMPDEST SWAP1 POP SWAP2 SWAP1 POP JUMP JUMPDEST PUSH2 0x21A DUP2 PUSH2 0x200 JUMP JUMPDEST DUP3 MSTORE POP POP JUMP JUMPDEST PUSH0 PUSH1 0x20 DUP3 ADD SWAP1 POP PUSH2 0x233 PUSH0 DUP4 ADD DUP5 PUSH2 0x211 JUMP JUMPDEST SWAP3 SWAP2 POP POP JUMP INVALID PUSH1 0x80 PUSH1 0x40 MSTORE PUSH1 0x40 MLOAD DUP1 PUSH1 0x60 ADD PUSH1 0x40 MSTORE DUP1 PUSH1 0x19 DUP2 MSTORE PUSH1 0x20 ADD PUSH20 0x606C71AD246DFD42497C1F5A8B91DE1DE13BFFFE PUSH20 0xFFFFFFFFFFFFFFFFFFFFFFFFFFFFFFFFFFFFFFFF AND DUP2 MSTORE PUSH1 0x20 ADD PUSH1 0x40 MLOAD DUP1 PUSH1 0x40 ADD PUSH1 0x40 MSTORE DUP1 PUSH1 0x9 DUP2 MSTORE PUSH1 0x20 ADD PUSH32 0x446565706D616C79610000000000000000000000000000000000000000000000 DUP2 MSTORE POP DUP2 MSTORE POP PUSH0 PUSH0 DUP3 ADD MLOAD DUP2 PUSH0 ADD SSTORE PUSH1 0x20 DUP3 ADD MLOAD DUP2 PUSH1 0x1 ADD PUSH0 PUSH2 0x100 EXP DUP2 SLOAD DUP2 PUSH20 0xFFFFFFFFFFFFFFFFFFFFFFFFFFFFFFFFFFFFFFFF MUL NOT AND SWAP1 DUP4 PUSH20 0xFFFFFFFFFFFFFFFFFFFFFFFFFFFFFFFFFFFFFFFF AND MUL OR SWAP1 SSTORE POP PUSH1 0x40 DUP3 ADD MLOAD DUP2 PUSH1 0x2 ADD SWAP1 DUP2 PUSH2 0xE3 SWAP2 SWAP1 PUSH2 0x334 JUMP JUMPDEST POP POP POP CALLVALUE DUP1 ISZERO PUSH2 0xF1 JUMPI PUSH0 PUSH0 REVERT JUMPDEST POP PUSH2 0x403 JUMP JUMPDEST PUSH0 DUP2 MLOAD SWAP1 POP SWAP2 SWAP1 POP JUMP JUMPDEST PUSH32 0x4E487B7100000000000000000000000000000000000000000000000000000000 PUSH0 MSTORE PUSH1 0x41 PUSH1 0x4 MSTORE PUSH1 0x24 PUSH0 REVERT JUMPDEST PUSH32 0x4E487B7100000000000000000000000000000000000000000000000000000000 PUSH0 MSTORE PUSH1 0x22 PUSH1 0x4 MSTORE PUSH1 0x24 PUSH0 REVERT JUMPDEST PUSH0 PUSH1 0x2 DUP3 DIV SWAP1 POP PUSH1 0x1 DUP3 AND DUP1 PUSH2 0x172 JUMPI PUSH1 0x7F DUP3 AND SWAP2 POP JUMPDEST PUSH1 0x20 DUP3 LT DUP2 SUB PUSH2 0x185 JUMPI PUSH2 0x184 PUSH2 0x12E JUMP JUMPDEST JUMPDEST POP SWAP2 SWAP1 POP JUMP JUMPDEST PUSH0 DUP2 SWAP1 POP DUP2 PUSH0 MSTORE PUSH1 0x20 PUSH0 KECCAK256 SWAP1 POP SWAP2 SWAP1 POP JUMP JUMPDEST PUSH0 PUSH1 0x20 PUSH1 0x1F DUP4 ADD DIV SWAP1 POP SWAP2 SWAP1 POP JUMP JUMPDEST PUSH0 DUP3 DUP3 SHL SWAP1 POP SWAP3 SWAP2 POP POP JUMP JUMPDEST PUSH0 PUSH1 0x8 DUP4 MUL PUSH2 0x1E7 PUSH32 0xFFFFFFFFFFFFFFFFFFFFFFFFFFFFFFFFFFFFFFFFFFFFFFFFFFFFFFFFFFFFFFFF DUP3 PUSH2 0x1AC JUMP JUMPDEST PUSH2 0x1F1 DUP7 DUP4 PUSH2 0x1AC JUMP JUMPDEST SWAP6 POP DUP1 NOT DUP5 AND SWAP4 POP DUP1 DUP7 AND DUP5 OR SWAP3 POP POP POP SWAP4 SWAP3 POP POP POP JUMP JUMPDEST PUSH0 DUP2 SWAP1 POP SWAP2 SWAP1 POP JUMP JUMPDEST PUSH0 DUP2 SWAP1 POP SWAP2 SWAP1 POP JUMP JUMPDEST PUSH0 PUSH2 0x235 PUSH2 0x230 PUSH2 0x22B DUP5 PUSH2 0x209 JUMP JUMPDEST PUSH2 0x212 JUMP JUMPDEST PUSH2 0x209 JUMP JUMPDEST SWAP1 POP SWAP2 SWAP1 POP JUMP JUMPDEST PUSH0 DUP2 SWAP1 POP SWAP2 SWAP1 POP JUMP JUMPDEST PUSH2 0x24E DUP4 PUSH2 0x21B JUMP JUMPDEST PUSH2 0x262 PUSH2 0x25A DUP3 PUSH2 0x23C JUMP JUMPDEST DUP5 DUP5 SLOAD PUSH2 0x1B8 JUMP JUMPDEST DUP3 SSTORE POP POP POP POP JUMP JUMPDEST PUSH0 PUSH0 SWAP1 POP SWAP1 JUMP JUMPDEST PUSH2 0x279 PUSH2 0x26A JUMP JUMPDEST PUSH2 0x284 DUP2 DUP5 DUP5 PUSH2 0x245 JUMP JUMPDEST POP POP POP JUMP JUMPDEST JUMPDEST DUP2 DUP2 LT ISZERO PUSH2 0x2A7 JUMPI PUSH2 0x29C PUSH0 DUP3 PUSH2 0x271 JUMP JUMPDEST PUSH1 0x1 DUP2 ADD SWAP1 POP PUSH2 0x28A JUMP JUMPDEST POP POP JUMP JUMPDEST PUSH1 0x1F DUP3 GT ISZERO PUSH2 0x2EC JUMPI PUSH2 0x2BD DUP2 PUSH2 0x18B JUMP JUMPDEST PUSH2 0x2C6 DUP5 PUSH2 0x19D JUMP JUMPDEST DUP2 ADD PUSH1 0x20 DUP6 LT ISZERO PUSH2 0x2D5 JUMPI DUP2 SWAP1 POP JUMPDEST PUSH2 0x2E9 PUSH2 0x2E1 DUP6 PUSH2 0x19D JUMP JUMPDEST DUP4 ADD DUP3 PUSH2 0x289 JUMP JUMPDEST POP POP JUMPDEST POP POP POP JUMP JUMPDEST PUSH0 DUP3 DUP3 SHR SWAP1 POP SWAP3 SWAP2 POP POP JUMP JUMPDEST PUSH0 PUSH2 0x30C PUSH0 NOT DUP5 PUSH1 0x8 MUL PUSH2 0x2F1 JUMP JUMPDEST NOT DUP1 DUP4 AND SWAP2 POP POP SWAP3 SWAP2 POP POP JUMP JUMPDEST PUSH0 PUSH2 0x324 DUP4 DUP4 PUSH2 0x2FD JUMP JUMPDEST SWAP2 POP DUP3 PUSH1 0x2 MUL DUP3 OR SWAP1 POP SWAP3 SWAP2 POP POP JUMP JUMPDEST PUSH2 0x33D DUP3 PUSH2 0xF7 JUMP JUMPDEST PUSH8 0xFFFFFFFFFFFFFFFF DUP2 GT ISZERO PUSH2 0x356 JUMPI PUSH2 0x355 PUSH2 0x101 JUMP JUMPDEST JUMPDEST PUSH2 0x360 DUP3 SLOAD PUSH2 0x15B JUMP JUMPDEST PUSH2 0x36B DUP3 DUP3 DUP6 PUSH2 0x2AB JUMP JUMPDEST PUSH0 PUSH1 0x20 SWAP1 POP PUSH1 0x1F DUP4 GT PUSH1 0x1 DUP2 EQ PUSH2 0x39C JUMPI PUSH0 DUP5 ISZERO PUSH2 0x38A JUMPI DUP3 DUP8 ADD MLOAD SWAP1 POP JUMPDEST PUSH2 0x394 DUP6 DUP3 PUSH2 0x319 JUMP JUMPDEST DUP7 SSTORE POP PUSH2 0x3FB JUMP JUMPDEST PUSH1 0x1F NOT DUP5 AND PUSH2 0x3AA DUP7 PUSH2 0x18B JUMP JUMPDEST PUSH0 JUMPDEST DUP3 DUP2 LT ISZERO PUSH2 0x3D1 JUMPI DUP5 DUP10 ADD MLOAD DUP3 SSTORE PUSH1 0x1 DUP3 ADD SWAP2 POP PUSH1 0x20 DUP6 ADD SWAP5 POP PUSH1 0x20 DUP2 ADD SWAP1 POP PUSH2 0x3AC JUMP JUMPDEST DUP7 DUP4 LT ISZERO PUSH2 0x3EE JUMPI DUP5 DUP10 ADD MLOAD PUSH2 0x3EA PUSH1 0x1F DUP10 AND DUP3 PUSH2 0x2FD JUMP JUMPDEST DUP4 SSTORE POP JUMPDEST PUSH1 0x1 PUSH1 0x2 DUP9 MUL ADD DUP9 SSTORE POP POP POP JUMPDEST POP POP POP POP POP POP JUMP JUMPDEST PUSH2 0x937 DUP1 PUSH2 0x410 PUSH0 CODECOPY PUSH0 RETURN INVALID PUSH1 0x80 PUSH1 0x40 MSTORE CALLVALUE DUP1 ISZERO PUSH2 0xF JUMPI PUSH0 PUSH0 REVERT JUMPDEST POP PUSH1 0x4 CALLDATASIZE LT PUSH2 0x3F JUMPI PUSH0 CALLDATALOAD PUSH1 0xE0 SHR DUP1 PUSH4 0xEE28E37 EQ PUSH2 0x43 JUMPI DUP1 PUSH4 0x5319A9BE EQ PUSH2 0x63 JUMPI DUP1 PUSH4 0x9E7A13AD EQ PUSH2 0x7F JUMPI JUMPDEST PUSH0 PUSH0 REVERT JUMPDEST PUSH2 0x4B PUSH2 0xB1 JUMP JUMPDEST PUSH1 0x40 MLOAD PUSH2 0x5A SWAP4 SWAP3 SWAP2 SWAP1 PUSH2 0x3D1 JUMP JUMPDEST PUSH1 0x40 MLOAD DUP1 SWAP2 SUB SWAP1 RETURN JUMPDEST PUSH2 0x7D PUSH1 0x4 DUP1 CALLDATASIZE SUB DUP2 ADD SWAP1 PUSH2 0x78 SWAP2 SWAP1 PUSH2 0x59E JUMP JUMPDEST PUSH2 0x16C JUMP JUMPDEST STOP JUMPDEST PUSH2 0x99 PUSH1 0x4 DUP1 CALLDATASIZE SUB DUP2 ADD SWAP1 PUSH2 0x94 SWAP2 SWAP1 PUSH2 0x60A JUMP JUMPDEST PUSH2 0x230 JUMP JUMPDEST PUSH1 0x40 MLOAD PUSH2 0xA8 SWAP4 SWAP3 SWAP2 SWAP1 PUSH2 0x3D1 JUMP JUMPDEST PUSH1 0x40 MLOAD DUP1 SWAP2 SUB SWAP1 RETURN JUMPDEST PUSH0 DUP1 PUSH0 ADD SLOAD SWAP1 DUP1 PUSH1 0x1 ADD PUSH0 SWAP1 SLOAD SWAP1 PUSH2 0x100 EXP SWAP1 DIV PUSH20 0xFFFFFFFFFFFFFFFFFFFFFFFFFFFFFFFFFFFFFFFF AND SWAP1 DUP1 PUSH1 0x2 ADD DUP1 SLOAD PUSH2 0xEB SWAP1 PUSH2 0x662 JUMP JUMPDEST DUP1 PUSH1 0x1F ADD PUSH1 0x20 DUP1 SWAP2 DIV MUL PUSH1 0x20 ADD PUSH1 0x40 MLOAD SWAP1 DUP2 ADD PUSH1 0x40 MSTORE DUP1 SWAP3 SWAP2 SWAP1 DUP2 DUP2 MSTORE PUSH1 0x20 ADD DUP3 DUP1 SLOAD PUSH2 0x117 SWAP1 PUSH2 0x662 JUMP JUMPDEST DUP1 ISZERO PUSH2 0x162 JUMPI DUP1 PUSH1 0x1F LT PUSH2 0x139 JUMPI PUSH2 0x100 DUP1 DUP4 SLOAD DIV MUL DUP4 MSTORE SWAP2 PUSH1 0x20 ADD SWAP2 PUSH2 0x162 JUMP JUMPDEST DUP3 ADD SWAP2 SWAP1 PUSH0 MSTORE PUSH1 0x20 PUSH0 KECCAK256 SWAP1 JUMPDEST DUP2 SLOAD DUP2 MSTORE SWAP1 PUSH1 0x1 ADD SWAP1 PUSH1 0x20 ADD DUP1 DUP4 GT PUSH2 0x145 JUMPI DUP3 SWAP1 SUB PUSH1 0x1F AND DUP3 ADD SWAP2 JUMPDEST POP POP POP POP POP SWAP1 POP DUP4 JUMP JUMPDEST PUSH1 0x3 PUSH1 0x40 MLOAD DUP1 PUSH1 0x60 ADD PUSH1 0x40 MSTORE DUP1 DUP6 DUP2 MSTORE PUSH1 0x20 ADD DUP5 PUSH20 0xFFFFFFFFFFFFFFFFFFFFFFFFFFFFFFFFFFFFFFFF AND DUP2 MSTORE PUSH1 0x20 ADD DUP4 DUP2 MSTORE POP SWAP1 DUP1 PUSH1 0x1 DUP2 SLOAD ADD DUP1 DUP3 SSTORE DUP1 SWAP2 POP POP PUSH1 0x1 SWAP1 SUB SWAP1 PUSH0 MSTORE PUSH1 0x20 PUSH0 KECCAK256 SWAP1 PUSH1 0x3 MUL ADD PUSH0 SWAP1 SWAP2 SWAP1 SWAP2 SWAP1 SWAP2 POP PUSH0 DUP3 ADD MLOAD DUP2 PUSH0 ADD SSTORE PUSH1 0x20 DUP3 ADD MLOAD DUP2 PUSH1 0x1 ADD PUSH0 PUSH2 0x100 EXP DUP2 SLOAD DUP2 PUSH20 0xFFFFFFFFFFFFFFFFFFFFFFFFFFFFFFFFFFFFFFFF MUL NOT AND SWAP1 DUP4 PUSH20 0xFFFFFFFFFFFFFFFFFFFFFFFFFFFFFFFFFFFFFFFF AND MUL OR SWAP1 SSTORE POP PUSH1 0x40 DUP3 ADD MLOAD DUP2 PUSH1 0x2 ADD SWAP1 DUP2 PUSH2 0x228 SWAP2 SWAP1 PUSH2 0x832 JUMP JUMPDEST POP POP POP POP POP POP JUMP JUMPDEST PUSH1 0x3 DUP2 DUP2 SLOAD DUP2 LT PUSH2 0x23F JUMPI PUSH0 DUP1 REVERT JUMPDEST SWAP1 PUSH0 MSTORE PUSH1 0x20 PUSH0 KECCAK256 SWAP1 PUSH1 0x3 MUL ADD PUSH0 SWAP2 POP SWAP1 POP DUP1 PUSH0 ADD SLOAD SWAP1 DUP1 PUSH1 0x1 ADD PUSH0 SWAP1 SLOAD SWAP1 PUSH2 0x100 EXP SWAP1 DIV PUSH20 0xFFFFFFFFFFFFFFFFFFFFFFFFFFFFFFFFFFFFFFFF AND SWAP1 DUP1 PUSH1 0x2 ADD DUP1 SLOAD PUSH2 0x289 SWAP1 PUSH2 0x662 JUMP JUMPDEST DUP1 PUSH1 0x1F ADD PUSH1 0x20 DUP1 SWAP2 DIV MUL PUSH1 0x20 ADD PUSH1 0x40 MLOAD SWAP1 DUP2 ADD PUSH1 0x40 MSTORE DUP1 SWAP3 SWAP2 SWAP1 DUP2 DUP2 MSTORE PUSH1 0x20 ADD DUP3 DUP1 SLOAD PUSH2 0x2B5 SWAP1 PUSH2 0x662 JUMP JUMPDEST DUP1 ISZERO PUSH2 0x300 JUMPI DUP1 PUSH1 0x1F LT PUSH2 0x2D7 JUMPI PUSH2 0x100 DUP1 DUP4 SLOAD DIV MUL DUP4 MSTORE SWAP2 PUSH1 0x20 ADD SWAP2 PUSH2 0x300 JUMP JUMPDEST DUP3 ADD SWAP2 SWAP1 PUSH0 MSTORE PUSH1 0x20 PUSH0 KECCAK256 SWAP1 JUMPDEST DUP2 SLOAD DUP2 MSTORE SWAP1 PUSH1 0x1 ADD SWAP1 PUSH1 0x20 ADD DUP1 DUP4 GT PUSH2 0x2E3 JUMPI DUP3 SWAP1 SUB PUSH1 0x1F AND DUP3 ADD SWAP2 JUMPDEST POP POP POP POP POP SWAP1 POP DUP4 JUMP JUMPDEST PUSH0 DUP2 SWAP1 POP SWAP2 SWAP1 POP JUMP JUMPDEST PUSH2 0x31C DUP2 PUSH2 0x30A JUMP JUMPDEST DUP3 MSTORE POP POP JUMP JUMPDEST PUSH0 PUSH20 0xFFFFFFFFFFFFFFFFFFFFFFFFFFFFFFFFFFFFFFFF DUP3 AND SWAP1 POP SWAP2 SWAP1 POP JUMP JUMPDEST PUSH0 PUSH2 0x34B DUP3 PUSH2 0x322 JUMP JUMPDEST SWAP1 POP SWAP2 SWAP1 POP JUMP JUMPDEST PUSH2 0x35B DUP2 PUSH2 0x341 JUMP JUMPDEST DUP3 MSTORE POP POP JUMP JUMPDEST PUSH0 DUP2 MLOAD SWAP1 POP SWAP2 SWAP1 POP JUMP JUMPDEST PUSH0 DUP3 DUP3 MSTORE PUSH1 0x20 DUP3 ADD SWAP1 POP SWAP3 SWAP2 POP POP JUMP JUMPDEST DUP3 DUP2 DUP4 MCOPY PUSH0 DUP4 DUP4 ADD MSTORE POP POP POP JUMP JUMPDEST PUSH0 PUSH1 0x1F NOT PUSH1 0x1F DUP4 ADD AND SWAP1 POP SWAP2 SWAP1 POP JUMP JUMPDEST PUSH0 PUSH2 0x3A3 DUP3 PUSH2 0x361 JUMP JUMPDEST PUSH2 0x3AD DUP2 DUP6 PUSH2 0x36B JUMP JUMPDEST SWAP4 POP PUSH2 0x3BD DUP2 DUP6 PUSH1 0x20 DUP7 ADD PUSH2 0x37B JUMP JUMPDEST PUSH2 0x3C6 DUP2 PUSH2 0x389 JUMP JUMPDEST DUP5 ADD SWAP2 POP POP SWAP3 SWAP2 POP POP JUMP JUMPDEST PUSH0 PUSH1 0x60 DUP3 ADD SWAP1 POP PUSH2 0x3E4 PUSH0 DUP4 ADD DUP7 PUSH2 0x313 JUMP JUMPDEST PUSH2 0x3F1 PUSH1 0x20 DUP4 ADD DUP6 PUSH2 0x352 JUMP JUMPDEST DUP2 DUP2 SUB PUSH1 0x40 DUP4 ADD MSTORE PUSH2 0x403 DUP2 DUP5 PUSH2 0x399 JUMP JUMPDEST SWAP1 POP SWAP5 SWAP4 POP POP POP POP JUMP JUMPDEST PUSH0 PUSH1 0x40 MLOAD SWAP1 POP SWAP1 JUMP JUMPDEST PUSH0 PUSH0 REVERT JUMPDEST PUSH0 PUSH0 REVERT JUMPDEST PUSH2 0x427 DUP2 PUSH2 0x30A JUMP JUMPDEST DUP2 EQ PUSH2 0x431 JUMPI PUSH0 PUSH0 REVERT JUMPDEST POP JUMP JUMPDEST PUSH0 DUP2 CALLDATALOAD SWAP1 POP PUSH2 0x442 DUP2 PUSH2 0x41E JUMP JUMPDEST SWAP3 SWAP2 POP POP JUMP JUMPDEST PUSH2 0x451 DUP2 PUSH2 0x341 JUMP JUMPDEST DUP2 EQ PUSH2 0x45B JUMPI PUSH0 PUSH0 REVERT JUMPDEST POP JUMP JUMPDEST PUSH0 DUP2 CALLDATALOAD SWAP1 POP PUSH2 0x46C DUP2 PUSH2 0x448 JUMP JUMPDEST SWAP3 SWAP2 POP POP JUMP JUMPDEST PUSH0 PUSH0 REVERT JUMPDEST PUSH0 PUSH0 REVERT JUMPDEST PUSH32 0x4E487B7100000000000000000000000000000000000000000000000000000000 PUSH0 MSTORE PUSH1 0x41 PUSH1 0x4 MSTORE PUSH1 0x24 PUSH0 REVERT JUMPDEST PUSH2 0x4B0 DUP3 PUSH2 0x389 JUMP JUMPDEST DUP2 ADD DUP2 DUP2 LT PUSH8 0xFFFFFFFFFFFFFFFF DUP3 GT OR ISZERO PUSH2 0x4CF JUMPI PUSH2 0x4CE PUSH2 0x47A JUMP JUMPDEST JUMPDEST DUP1 PUSH1 0x40 MSTORE POP POP POP JUMP JUMPDEST PUSH0 PUSH2 0x4E1 PUSH2 0x40D JUMP JUMPDEST SWAP1 POP PUSH2 0x4ED DUP3 DUP3 PUSH2 0x4A7 JUMP JUMPDEST SWAP2 SWAP1 POP JUMP JUMPDEST PUSH0 PUSH8 0xFFFFFFFFFFFFFFFF DUP3 GT ISZERO PUSH2 0x50C JUMPI PUSH2 0x50B PUSH2 0x47A JUMP JUMPDEST JUMPDEST PUSH2 0x515 DUP3 PUSH2 0x389 JUMP JUMPDEST SWAP1 POP PUSH1 0x20 DUP2 ADD SWAP1 POP SWAP2 SWAP1 POP JUMP JUMPDEST DUP3 DUP2 DUP4 CALLDATACOPY PUSH0 DUP4 DUP4 ADD MSTORE POP POP POP JUMP JUMPDEST PUSH0 PUSH2 0x542 PUSH2 0x53D DUP5 PUSH2 0x4F2 JUMP JUMPDEST PUSH2 0x4D8 JUMP JUMPDEST SWAP1 POP DUP3 DUP2 MSTORE PUSH1 0x20 DUP2 ADD DUP5 DUP5 DUP5 ADD GT ISZERO PUSH2 0x55E JUMPI PUSH2 0x55D PUSH2 0x476 JUMP JUMPDEST JUMPDEST PUSH2 0x569 DUP5 DUP3 DUP6 PUSH2 0x522 JUMP JUMPDEST POP SWAP4 SWAP3 POP POP POP JUMP JUMPDEST PUSH0 DUP3 PUSH1 0x1F DUP4 ADD SLT PUSH2 0x585 JUMPI PUSH2 0x584 PUSH2 0x472 JUMP JUMPDEST JUMPDEST DUP2 CALLDATALOAD PUSH2 0x595 DUP5 DUP3 PUSH1 0x20 DUP7 ADD PUSH2 0x530 JUMP JUMPDEST SWAP2 POP POP SWAP3 SWAP2 POP POP JUMP JUMPDEST PUSH0 PUSH0 PUSH0 PUSH1 0x60 DUP5 DUP7 SUB SLT ISZERO PUSH2 0x5B5 JUMPI PUSH2 0x5B4 PUSH2 0x416 JUMP JUMPDEST JUMPDEST PUSH0 PUSH2 0x5C2 DUP7 DUP3 DUP8 ADD PUSH2 0x434 JUMP JUMPDEST SWAP4 POP POP PUSH1 0x20 PUSH2 0x5D3 DUP7 DUP3 DUP8 ADD PUSH2 0x45E JUMP JUMPDEST SWAP3 POP POP PUSH1 0x40 DUP5 ADD CALLDATALOAD PUSH8 0xFFFFFFFFFFFFFFFF DUP2 GT ISZERO PUSH2 0x5F4 JUMPI PUSH2 0x5F3 PUSH2 0x41A JUMP JUMPDEST JUMPDEST PUSH2 0x600 DUP7 DUP3 DUP8 ADD PUSH2 0x571 JUMP JUMPDEST SWAP2 POP POP SWAP3 POP SWAP3 POP SWAP3 JUMP JUMPDEST PUSH0 PUSH1 0x20 DUP3 DUP5 SUB SLT ISZERO PUSH2 0x61F JUMPI PUSH2 0x61E PUSH2 0x416 JUMP JUMPDEST JUMPDEST PUSH0 PUSH2 0x62C DUP5 DUP3 DUP6 ADD PUSH2 0x434 JUMP JUMPDEST SWAP2 POP POP SWAP3 SWAP2 POP POP JUMP JUMPDEST PUSH32 0x4E487B7100000000000000000000000000000000000000000000000000000000 PUSH0 MSTORE PUSH1 0x22 PUSH1 0x4 MSTORE PUSH1 0x24 PUSH0 REVERT JUMPDEST PUSH0 PUSH1 0x2 DUP3 DIV SWAP1 POP PUSH1 0x1 DUP3 AND DUP1 PUSH2 0x679 JUMPI PUSH1 0x7F DUP3 AND SWAP2 POP JUMPDEST PUSH1 0x20 DUP3 LT DUP2 SUB PUSH2 0x68C JUMPI PUSH2 0x68B PUSH2 0x635 JUMP JUMPDEST JUMPDEST POP SWAP2 SWAP1 POP JUMP JUMPDEST PUSH0 DUP2 SWAP1 POP DUP2 PUSH0 MSTORE PUSH1 0x20 PUSH0 KECCAK256 SWAP1 POP SWAP2 SWAP1 POP JUMP JUMPDEST PUSH0 PUSH1 0x20 PUSH1 0x1F DUP4 ADD DIV SWAP1 POP SWAP2 SWAP1 POP JUMP JUMPDEST PUSH0 DUP3 DUP3 SHL SWAP1 POP SWAP3 SWAP2 POP POP JUMP JUMPDEST PUSH0 PUSH1 0x8 DUP4 MUL PUSH2 0x6EE PUSH32 0xFFFFFFFFFFFFFFFFFFFFFFFFFFFFFFFFFFFFFFFFFFFFFFFFFFFFFFFFFFFFFFFF DUP3 PUSH2 0x6B3 JUMP JUMPDEST PUSH2 0x6F8 DUP7 DUP4 PUSH2 0x6B3 JUMP JUMPDEST SWAP6 POP DUP1 NOT DUP5 AND SWAP4 POP DUP1 DUP7 AND DUP5 OR SWAP3 POP POP POP SWAP4 SWAP3 POP POP POP JUMP JUMPDEST PUSH0 DUP2 SWAP1 POP SWAP2 SWAP1 POP JUMP JUMPDEST PUSH0 PUSH2 0x733 PUSH2 0x72E PUSH2 0x729 DUP5 PUSH2 0x30A JUMP JUMPDEST PUSH2 0x710 JUMP JUMPDEST PUSH2 0x30A JUMP JUMPDEST SWAP1 POP SWAP2 SWAP1 POP JUMP JUMPDEST PUSH0 DUP2 SWAP1 POP SWAP2 SWAP1 POP JUMP JUMPDEST PUSH2 0x74C DUP4 PUSH2 0x719 JUMP JUMPDEST PUSH2 0x760 PUSH2 0x758 DUP3 PUSH2 0x73A JUMP JUMPDEST DUP5 DUP5 SLOAD PUSH2 0x6BF JUMP JUMPDEST DUP3 SSTORE POP POP POP POP JUMP JUMPDEST PUSH0 PUSH0 SWAP1 POP SWAP1 JUMP JUMPDEST PUSH2 0x777 PUSH2 0x768 JUMP JUMPDEST PUSH2 0x782 DUP2 DUP5 DUP5 PUSH2 0x743 JUMP JUMPDEST POP POP POP JUMP JUMPDEST JUMPDEST DUP2 DUP2 LT ISZERO PUSH2 0x7A5 JUMPI PUSH2 0x79A PUSH0 DUP3 PUSH2 0x76F JUMP JUMPDEST PUSH1 0x1 DUP2 ADD SWAP1 POP PUSH2 0x788 JUMP JUMPDEST POP POP JUMP JUMPDEST PUSH1 0x1F DUP3 GT ISZERO PUSH2 0x7EA JUMPI PUSH2 0x7BB DUP2 PUSH2 0x692 JUMP JUMPDEST PUSH2 0x7C4 DUP5 PUSH2 0x6A4 JUMP JUMPDEST DUP2 ADD PUSH1 0x20 DUP6 LT ISZERO PUSH2 0x7D3 JUMPI DUP2 SWAP1 POP JUMPDEST PUSH2 0x7E7 PUSH2 0x7DF DUP6 PUSH2 0x6A4 JUMP JUMPDEST DUP4 ADD DUP3 PUSH2 0x787 JUMP JUMPDEST POP POP JUMPDEST POP POP POP JUMP JUMPDEST PUSH0 DUP3 DUP3 SHR SWAP1 POP SWAP3 SWAP2 POP POP JUMP JUMPDEST PUSH0 PUSH2 0x80A PUSH0 NOT DUP5 PUSH1 0x8 MUL PUSH2 0x7EF JUMP JUMPDEST NOT DUP1 DUP4 AND SWAP2 POP POP SWAP3 SWAP2 POP POP JUMP JUMPDEST PUSH0 PUSH2 0x822 DUP4 DUP4 PUSH2 0x7FB JUMP JUMPDEST SWAP2 POP DUP3 PUSH1 0x2 MUL DUP3 OR SWAP1 POP SWAP3 SWAP2 POP POP JUMP JUMPDEST PUSH2 0x83B DUP3 PUSH2 0x361 JUMP JUMPDEST PUSH8 0xFFFFFFFFFFFFFFFF DUP2 GT ISZERO PUSH2 0x854 JUMPI PUSH2 0x853 PUSH2 0x47A JUMP JUMPDEST JUMPDEST PUSH2 0x85E DUP3 SLOAD PUSH2 0x662 JUMP JUMPDEST PUSH2 0x869 DUP3 DUP3 DUP6 PUSH2 0x7A9 JUMP JUMPDEST PUSH0 PUSH1 0x20 SWAP1 POP PUSH1 0x1F DUP4 GT PUSH1 0x1 DUP2 EQ PUSH2 0x89A JUMPI PUSH0 DUP5 ISZERO PUSH2 0x888 JUMPI DUP3 DUP8 ADD MLOAD SWAP1 POP JUMPDEST PUSH2 0x892 DUP6 DUP3 PUSH2 0x817 JUMP JUMPDEST DUP7 SSTORE POP PUSH2 0x8F9 JUMP JUMPDEST PUSH1 0x1F NOT DUP5 AND PUSH2 0x8A8 DUP7 PUSH2 0x692 JUMP JUMPDEST PUSH0 JUMPDEST DUP3 DUP2 LT ISZERO PUSH2 0x8CF JUMPI DUP5 DUP10 ADD MLOAD DUP3 SSTORE PUSH1 0x1 DUP3 ADD SWAP2 POP PUSH1 0x20 DUP6 ADD SWAP5 POP PUSH1 0x20 DUP2 ADD SWAP1 POP PUSH2 0x8AA JUMP JUMPDEST DUP7 DUP4 LT ISZERO PUSH2 0x8EC JUMPI DUP5 DUP10 ADD MLOAD PUSH2 0x8E8 PUSH1 0x1F DUP10 AND DUP3 PUSH2 0x7FB JUMP JUMPDEST DUP4 SSTORE POP JUMPDEST PUSH1 0x1 PUSH1 0x2 DUP9 MUL ADD DUP9 SSTORE POP POP POP JUMPDEST POP POP POP POP POP POP JUMP INVALID LOG2 PUSH5 0x6970667358 0x22 SLT KECCAK256 PREVRANDAO PUSH12 0xDFCEC35BF21F8EFCD8B4EC2C 0xB0 0x26 PUSH19 0xEA8B69714F68047FB2DD905D1814C664736F6C PUSH4 0x4300081F STOP CALLER LOG2 PUSH5 0x6970667358 0x22 SLT KECCAK256 DUP7 POP EQ SUB CREATE SLT 0xDE 0x2F 0xD0 0xA7 PUSH26 0x23760ADA1E800B0659F72D68313EC63504FFCF5D3F64736F6C63 NUMBER STOP ADDMOD 0x1F STOP CALLER "
				},
				"gasEstimates": {
					"creation": {
						"codeDepositCost": "804400",
						"executionCost": "836",
						"totalCost": "805236"
					},
					"external": {
						"createSimpleStorageContract()": "infinite",
						"simplestoragearray(uint256)": "infinite"
					}
				},
				"methodIdentifiers": {
					"createSimpleStorageContract()": "1dda6541",
					"simplestoragearray(uint256)": "7c6e24a7"
				}
			},
			"storageLayout": {
				"storage": [
					{
						"astId": 6,
						"contract": "contracts/storage/StorageFactory.sol:StorageFactory",
						"label": "simplestoragearray",
						"offset": 0,
						"slot": "0",
						"type": "t_array(t_contract(SimpleStorage)67)dyn_storage"
					}
				],
				"types": {
					"t_array(t_contract(SimpleStorage)67)dyn_storage": {
						"base": "t_contract(SimpleStorage)67",
						"encoding": "dynamic_array",
						"label": "contract SimpleStorage[]",
						"numberOfBytes": "32"
					},
					"t_contract(SimpleStorage)67": {
						"encoding": "inplace",
						"label": "contract SimpleStorage",
						"numberOfBytes": "20"
					}
				}
			},
			"userdoc": {
				"kind": "user",
				"methods": {},
				"version": 1
			}
		}
	}
}