{
  "contractName": "TodoList",
  "abi": [
    {
      "constant": true,
      "inputs": [
        {
          "name": "",
          "type": "uint256"
        }
      ],
      "name": "tasks",
      "outputs": [
        {
          "name": "id",
          "type": "uint256"
        },
        {
          "name": "content",
          "type": "string"
        },
        {
          "name": "completed",
          "type": "bool"
        }
      ],
      "payable": false,
      "stateMutability": "view",
      "type": "function",
      "signature": "0x8d977672"
    },
    {
      "constant": true,
      "inputs": [],
      "name": "task_count",
      "outputs": [
        {
          "name": "",
          "type": "uint256"
        }
      ],
      "payable": false,
      "stateMutability": "view",
      "type": "function",
      "signature": "0xb3435251"
    },
    {
      "inputs": [],
      "payable": false,
      "stateMutability": "nonpayable",
      "type": "constructor",
      "signature": "constructor"
    },
    {
      "anonymous": false,
      "inputs": [
        {
          "indexed": false,
          "name": "id",
          "type": "uint256"
        },
        {
          "indexed": false,
          "name": "content",
          "type": "string"
        },
        {
          "indexed": false,
          "name": "completed",
          "type": "bool"
        }
      ],
      "name": "taskcreated",
      "type": "event",
      "signature": "0x5dac94a871091ea8c2cb36cbe90d9fbe1f40ffee94760734ca21afc683af5c99"
    },
    {
      "anonymous": false,
      "inputs": [
        {
          "indexed": false,
          "name": "id",
          "type": "uint256"
        },
        {
          "indexed": false,
          "name": "completed",
          "type": "bool"
        }
      ],
      "name": "TaskCompleted",
      "type": "event",
      "signature": "0xe21fa966ca5cd02748c0752352d18c48165e61cb55b4c29cccf924b5a95fcff1"
    },
    {
      "constant": false,
      "inputs": [
        {
          "name": "_content",
          "type": "string"
        }
      ],
      "name": "createTask",
      "outputs": [],
      "payable": false,
      "stateMutability": "nonpayable",
      "type": "function",
      "signature": "0x111002aa"
    },
    {
      "constant": false,
      "inputs": [
        {
          "name": "_id",
          "type": "uint256"
        }
      ],
      "name": "toggleTask",
      "outputs": [],
      "payable": false,
      "stateMutability": "nonpayable",
      "type": "function",
      "signature": "0x613137a4"
    }
  ],
  "bytecode": "0x60806040526000805534801561001457600080fd5b50610089606060405190810160405280603381526020017f46696e64206120426c61636b486f6c6520686964696e6720696e20746865207681526020017f6173746e657373206f6620556e6976657273650000000000000000000000000081525061008e640100000000026401000000009004565b61024d565b60008054600190810180835560408051606081018252828152602080820187815282840187905293865284815291909420845181559151805192936100db939085019291909101906101b2565b5060408201518160020160006101000a81548160ff0219169083151502179055509050507f5dac94a871091ea8c2cb36cbe90d9fbe1f40ffee94760734ca21afc683af5c99600054826000604051808481526020018060200183151515158152602001828103825284818151815260200191508051906020019080838360005b8381101561017357818101518382015260200161015b565b50505050905090810190601f1680156101a05780820380516001836020036101000a031916815260200191505b5094505050505060405180910390a150565b828054600181600116156101000203166002900490600052602060002090601f016020900481019282601f106101f357805160ff1916838001178555610220565b82800160010185558215610220579182015b82811115610220578251825591602001919060010190610205565b5061022c929150610230565b5090565b61024a91905b8082111561022c5760008155600101610236565b90565b6106448061025c6000396000f3fe6080604052600436106100615763ffffffff7c0100000000000000000000000000000000000000000000000000000000600035041663111002aa8114610066578063613137a41461011b5780638d97767214610145578063b3435251146101f9575b600080fd5b34801561007257600080fd5b506101196004803603602081101561008957600080fd5b8101906020810181356401000000008111156100a457600080fd5b8201836020820111156100b657600080fd5b803590602001918460018302840111640100000000831117156100d857600080fd5b91908080601f016020809104026020016040519081016040528093929190818152602001838380828437600092019190915250929550610220945050505050565b005b34801561012757600080fd5b506101196004803603602081101561013e57600080fd5b5035610344565b34801561015157600080fd5b5061016f6004803603602081101561016857600080fd5b50356104a4565b604051808481526020018060200183151515158152602001828103825284818151815260200191508051906020019080838360005b838110156101bc5781810151838201526020016101a4565b50505050905090810190601f1680156101e95780820380516001836020036101000a031916815260200191505b5094505050505060405180910390f35b34801561020557600080fd5b5061020e610553565b60408051918252519081900360200190f35b600080546001908101808355604080516060810182528281526020808201878152828401879052938652848152919094208451815591518051929361026d93908501929190910190610559565b5060408201518160020160006101000a81548160ff0219169083151502179055509050507f5dac94a871091ea8c2cb36cbe90d9fbe1f40ffee94760734ca21afc683af5c99600054826000604051808481526020018060200183151515158152602001828103825284818151815260200191508051906020019080838360005b838110156103055781810151838201526020016102ed565b50505050905090810190601f1680156103325780820380516001836020036101000a031916815260200191505b5094505050505060405180910390a150565b61034c6105d7565b60008281526001602081815260409283902083516060810185528154815281840180548651600296821615610100026000190190911695909504601f810185900485028601850190965285855290949193858401939092908301828280156103f55780601f106103ca576101008083540402835291602001916103f5565b820191906000526020600020905b8154815290600101906020018083116103d857829003601f168201915b50505091835250506002919091015460ff1615156020918201526040808301805115905260008581526001808452919020835181558383015180519495508594919361044693850192910190610559565b50604091820151600291909101805460ff1916911515919091179055818101518151848152901515602082015281517fe21fa966ca5cd02748c0752352d18c48165e61cb55b4c29cccf924b5a95fcff1929181900390910190a15050565b600160208181526000928352604092839020805481840180548651600296821615610100026000190190911695909504601f810185900485028601850190965285855290949193929091908301828280156105405780601f1061051557610100808354040283529160200191610540565b820191906000526020600020905b81548152906001019060200180831161052357829003601f168201915b5050506002909301549192505060ff1683565b60005481565b828054600181600116156101000203166002900490600052602060002090601f016020900481019282601f1061059a57805160ff19168380011785556105c7565b828001600101855582156105c7579182015b828111156105c75782518255916020019190600101906105ac565b506105d39291506105fb565b5090565b60606040519081016040528060008152602001606081526020016000151581525090565b61061591905b808211156105d35760008155600101610601565b9056fea165627a7a72305820eaefec2c43316b65cdf89471df04ebdda2900feb36d915d23b1c04c2db619ad80029",
  "source": "pragma solidity ^0.5.0;\r\n\r\ncontract TodoList{\r\n    uint public task_count=0;\r\n\r\n    struct Task{\r\n        uint id;\r\n        string content;\r\n        bool completed;\r\n    }\r\n\r\n    mapping (uint => Task) public tasks; // we are not only building an instance of our task dtype, \r\n    // but also for each task map them with an integer(unsigned: can be negative) id - key:value pair\r\n\r\n    // Since this is not a RemixIDe , thus we can't test deployed contracts..lets thus build a constructore \r\n    // that during the time oh initialisation once creates a task in the storage for us..\r\n    constructor() public {\r\n        createTask(\"Find a BlackHole hiding in the vastness of Universe\");\r\n    }\r\n\r\n    event taskcreated(\r\n        uint id,\r\n        string content,\r\n        bool completed\r\n    ); // an event simply tells a user that a transactionhas succesfully been processed\r\n\r\n    function createTask(string memory _content) public {\r\n        task_count++;\r\n        // besides increasing the count of to-do tasks, for every id key we are assigning it the content \r\n        // of the new task\r\n        tasks [task_count] = Task(task_count, _content, false);\r\n        // now that the task is created, how do the user know that a task is created and stored in memory ?\r\n        // this is why we need to declare an event.\r\n        emit taskcreated(task_count, _content, false); // false as the task is just being created for to-do\r\n    } \r\n\r\n    event TaskCompleted(\r\n        uint id,\r\n        bool completed\r\n    );\r\n\r\n    function toggleTask(uint _id) public {\r\n        Task memory _task = tasks[_id]; // retrieving info about a particular task with its id\r\n        _task.completed = ! _task.completed; // reverse the completion state of the task \r\n        tasks[_id]=_task;\r\n\r\n        // again to let user know that the task is marked as completed, trigger an event\r\n        emit TaskCompleted(_id, _task.completed);\r\n    }\r\n\r\n}",
  "sourcePath": "C:/Users/DEEPMALYA/OneDrive/Desktop/pip_Malya/Blockchain/eth-todo-list/contracts/to_do_list.sol",
  "compiler": {
    "name": "solc",
    "version": "0.5.0+commit.1d4f565a.Emscripten.clang"
  },
  "schemaVersion": "3.0.1",
  "updatedAt": "2026-02-27T14:23:48.642Z",
  "devdoc": {
    "methods": {}
  },
  "userdoc": {
    "methods": {}
  }
}